{
  "contractName": "ChannelStorage",
  "abi": [
    {
      "anonymous": false,
      "inputs": [
        {
          "indexed": true,
          "internalType": "address",
          "name": "previousOwner",
          "type": "address"
        },
        {
          "indexed": true,
          "internalType": "address",
          "name": "newOwner",
          "type": "address"
        }
      ],
      "name": "OwnershipTransferred",
      "type": "event"
    },
    {
      "inputs": [
        {
          "internalType": "uint8",
          "name": "",
          "type": "uint8"
        },
        {
          "internalType": "uint256",
          "name": "",
          "type": "uint256"
        }
      ],
      "name": "channelCountByOwnership",
      "outputs": [
        {
          "internalType": "uint32",
          "name": "",
          "type": "uint32"
        }
      ],
      "stateMutability": "view",
      "type": "function"
    },
    {
      "inputs": [],
      "name": "nextChannelId",
      "outputs": [
        {
          "internalType": "uint64",
          "name": "",
          "type": "uint64"
        }
      ],
      "stateMutability": "view",
      "type": "function"
    },
    {
      "inputs": [],
      "name": "owner",
      "outputs": [
        {
          "internalType": "address",
          "name": "",
          "type": "address"
        }
      ],
      "stateMutability": "view",
      "type": "function"
    },
    {
      "inputs": [],
      "name": "renounceOwnership",
      "outputs": [],
      "stateMutability": "nonpayable",
      "type": "function"
    },
    {
      "inputs": [
        {
          "internalType": "address",
          "name": "newOwner",
          "type": "address"
        }
      ],
      "name": "transferOwnership",
      "outputs": [],
      "stateMutability": "nonpayable",
      "type": "function"
    },
    {
      "inputs": [
        {
          "components": [
            {
              "internalType": "uint8",
              "name": "ownershipType",
              "type": "uint8"
            },
            {
              "internalType": "uint256",
              "name": "ownerId",
              "type": "uint256"
            }
          ],
          "internalType": "struct ChannelOwnership",
          "name": "_ownership",
          "type": "tuple"
        }
      ],
      "name": "addChannel",
      "outputs": [
        {
          "internalType": "uint64",
          "name": "",
          "type": "uint64"
        }
      ],
      "stateMutability": "nonpayable",
      "type": "function"
    },
    {
      "inputs": [
        {
          "internalType": "uint64",
          "name": "_channelId",
          "type": "uint64"
        }
      ],
      "name": "getExistingChannel",
      "outputs": [
        {
          "components": [
            {
              "components": [
                {
                  "internalType": "uint8",
                  "name": "ownershipType",
                  "type": "uint8"
                },
                {
                  "internalType": "uint256",
                  "name": "ownerId",
                  "type": "uint256"
                }
              ],
              "internalType": "struct ChannelOwnership",
              "name": "ownership",
              "type": "tuple"
            },
            {
              "internalType": "bool",
              "name": "isActive",
              "type": "bool"
            },
            {
              "internalType": "uint32",
              "name": "videoLimit",
              "type": "uint32"
            },
            {
              "internalType": "bool",
              "name": "isExisting",
              "type": "bool"
            }
          ],
          "internalType": "struct Channel",
          "name": "",
          "type": "tuple"
        }
      ],
      "stateMutability": "view",
      "type": "function"
    },
    {
      "inputs": [
        {
          "internalType": "uint64",
          "name": "_channelId",
          "type": "uint64"
        },
        {
          "components": [
            {
              "internalType": "uint8",
              "name": "ownershipType",
              "type": "uint8"
            },
            {
              "internalType": "uint256",
              "name": "ownerId",
              "type": "uint256"
            }
          ],
          "internalType": "struct ChannelOwnership",
          "name": "_ownership",
          "type": "tuple"
        }
      ],
      "name": "updateOwnership",
      "outputs": [],
      "stateMutability": "nonpayable",
      "type": "function"
    },
    {
      "inputs": [
        {
          "internalType": "uint64",
          "name": "_channelId",
          "type": "uint64"
        },
        {
          "internalType": "bool",
          "name": "_isActive",
          "type": "bool"
        }
      ],
      "name": "updateStatus",
      "outputs": [],
      "stateMutability": "nonpayable",
      "type": "function"
    },
    {
      "inputs": [
        {
          "internalType": "uint64",
          "name": "_channelId",
          "type": "uint64"
        },
        {
          "internalType": "uint32",
          "name": "_videoLimit",
          "type": "uint32"
        }
      ],
      "name": "setChannelVideoLimit",
      "outputs": [],
      "stateMutability": "nonpayable",
      "type": "function"
    },
    {
      "inputs": [
        {
          "internalType": "uint64",
          "name": "_channelId",
          "type": "uint64"
        }
      ],
      "name": "removeChannel",
      "outputs": [],
      "stateMutability": "nonpayable",
      "type": "function"
    }
  ],
  "bytecode": "0x6080604052600380546001600160401b031916600117905534801561002357600080fd5b50600061002e61007d565b600080546001600160a01b0319166001600160a01b0383169081178255604051929350917f8be0079c531659141344cd1fd0a4f28419497f9722a3daafe3b4186f6b6457e0908290a350610081565b3390565b610bbe806100906000396000f3fe608060405234801561001057600080fd5b50600436106100995760003560e01c806333364dca1461009e578063614265ee146100b357806364c8121f146100c6578063678d913d146100d9578063715018a61461010257806371fff9c51461010a5780638da5cb5b1461012a578063b5b9dc911461013f578063e35213d814610152578063f2fde38b14610172578063f4606f0014610185575b600080fd5b6100b16100ac3660046108f9565b61018d565b005b6100b16100c1366004610896565b610230565b6100b16100d436600461092e565b6102db565b6100ec6100e7366004610896565b61034c565b6040516100f99190610ae7565b60405180910390f35b6100b16103f2565b61011d610118366004610963565b61045f565b6040516100f99190610b2b565b610132610482565b6040516100f9919061098d565b6100b161014d3660046108b2565b610491565b61016561016036600461087b565b6104f4565b6040516100f99190610b3c565b6100b1610180366004610854565b6105a0565b610165610644565b610195610653565b6000546001600160a01b039081169116146101cb5760405162461bcd60e51b81526004016101c290610a6f565b60405180910390fd5b6001600160401b0382166000908152600160208181526040928390208351808501909452805460ff16845291820154908301529061020890610657565b8151815460ff191660ff9091161781556020820151600182015561022b82610693565b505050565b610238610653565b6000546001600160a01b039081169116146102655760405162461bcd60e51b81526004016101c290610a6f565b6001600160401b0381166000908152600160208181526040928390208351808501909452805460ff16845290910154908201526102a190610657565b6001600160401b031660009081526001602081905260408220805460ff1916815590810191909155600201805465ffffffffffff19169055565b6102e3610653565b6000546001600160a01b039081169116146103105760405162461bcd60e51b81526004016101c290610a6f565b6001600160401b039091166000908152600160205260409020600201805463ffffffff9092166101000264ffffffff0019909216919091179055565b6103546107ac565b61035c6107ac565b506001600160401b038216600090815260016020818152604092839020835160c081018552815460ff908116608083019081529483015460a083015293815260029091015480841615159282019290925263ffffffff61010083041693810193909352600160281b9004161515606082018190526103ec5760405162461bcd60e51b81526004016101c290610aa4565b92915050565b6103fa610653565b6000546001600160a01b039081169116146104275760405162461bcd60e51b81526004016101c290610a6f565b600080546040516001600160a01b0390911690600080516020610b69833981519152908390a3600080546001600160a01b0319169055565b600260209081526000928352604080842090915290825290205463ffffffff1681565b6000546001600160a01b031690565b610499610653565b6000546001600160a01b039081169116146104c65760405162461bcd60e51b81526004016101c290610a6f565b6001600160401b03919091166000908152600160205260409020600201805460ff1916911515919091179055565b60006104fe610653565b6000546001600160a01b0390811691161461052b5760405162461bcd60e51b81526004016101c290610a6f565b6003546001600160401b03166000818152600160208181526040909220600281018054600160281b60ff60281b199091161790558551815460ff191660ff909116178155918501519082015561058084610693565b600354610597906001600160401b031660016106cb565b50909392505050565b6105a8610653565b6000546001600160a01b039081169116146105d55760405162461bcd60e51b81526004016101c290610a6f565b6001600160a01b0381166105fb5760405162461bcd60e51b81526004016101c2906109f4565b600080546040516001600160a01b0380851693921691600080516020610b6983398151915291a3600080546001600160a01b0319166001600160a01b0392909216919091179055565b6003546001600160401b031681565b3390565b805160ff16600090815260026020908152604080832082850151845290915290205461068f9063ffffffff9081169060019061070316565b5050565b805160ff16600090815260026020908152604080832082850151845290915290205461068f9063ffffffff9081169060019061074516565b60008282016001600160401b0380851690821610156106fc5760405162461bcd60e51b81526004016101c290610a3a565b9392505050565b60006106fc83836040518060400160405280601e81526020017f536166654d6174683a207375627472616374696f6e206f766572666c6f770000815250610773565b600082820163ffffffff80851690821610156106fc5760405162461bcd60e51b81526004016101c290610a3a565b60008363ffffffff168363ffffffff16111582906107a45760405162461bcd60e51b81526004016101c291906109a1565b505050900390565b60405180608001604052806107bf6107da565b81526000602082018190526040820181905260609091015290565b604080518082019091526000808252602082015290565b600060408284031215610802578081fd5b604080519081016001600160401b0381118282101715610820578283fd5b6040529050806108308484610843565b8152602083013560208201525092915050565b803560ff811681146103ec57600080fd5b600060208284031215610865578081fd5b81356001600160a01b03811681146106fc578182fd5b60006040828403121561088c578081fd5b6106fc83836107f1565b6000602082840312156108a7578081fd5b81356106fc81610b50565b600080604083850312156108c4578081fd5b82356001600160401b03811681146108da578182fd5b9150602083013580151581146108ee578182fd5b809150509250929050565b6000806060838503121561090b578182fd5b823561091681610b50565b915061092584602085016107f1565b90509250929050565b60008060408385031215610940578182fd5b823561094b81610b50565b9150602083013563ffffffff811681146108ee578182fd5b60008060408385031215610975578182fd5b61097f8484610843565b946020939093013593505050565b6001600160a01b0391909116815260200190565b6000602080835283518082850152825b818110156109cd578581018301518582016040015282016109b1565b818111156109de5783604083870101525b50601f01601f1916929092016040019392505050565b60208082526026908201527f4f776e61626c653a206e6577206f776e657220697320746865207a65726f206160408201526564647265737360d01b606082015260800190565b6020808252601b908201527a536166654d6174683a206164646974696f6e206f766572666c6f7760281b604082015260600190565b6020808252818101527f4f776e61626c653a2063616c6c6572206973206e6f7420746865206f776e6572604082015260600190565b60208082526023908201527f547279696e6720746f2061636365737320756e6578697374696e67206368616e6040820152621b995b60ea1b606082015260800190565b8151805160ff16825260209081015181830152820151151560408083019190915282015163ffffffff16606080830191909152909101511515608082015260a00190565b63ffffffff91909116815260200190565b6001600160401b0391909116815260200190565b6001600160401b0381168114610b6557600080fd5b5056fe8be0079c531659141344cd1fd0a4f28419497f9722a3daafe3b4186f6b6457e0a2646970667358221220fd1de33b4564704a78e4e0fa0c0dc4f9884d1a1ce0df0d7ef018c774b7655ffe64736f6c634300060c0033",
  "immutableReferences": {},
  "source": "pragma solidity ^0.6.0;\npragma experimental ABIEncoderV2;\n\nimport \"../../node_modules/@openzeppelin/contracts/access/Ownable.sol\";\nimport \"../../node_modules/@openzeppelin/contracts/math/SafeMath.sol\";\nimport \"../lib/SafeMath32.sol\";\nimport \"../lib/SafeMath64.sol\";\n\n// Generic representation of ownership, assuming that each possible ownership consists of:\n// - Type (ie. Member, Group, Curator etc.), which is represented by uint8 (and can be converted to enum)\n// - Identifier (address/id/hash), which is represented by uint256\nstruct ChannelOwnership {\n    uint8 ownershipType;\n\tuint256 ownerId;\n}\n\n// Any change to this struct requires ChannelStorage migration\nstruct Channel {\n    ChannelOwnership ownership;\n    bool isActive;\n\tuint32 videoLimit; // 0 = use default\n    bool isExisting;\n}\n\n// A helper library to parse ChannelOwnership.\n// New ownership types can be safely added if needed without the need for migration\n// (but changing/removing existing ones would still require migration to new storage)\nenum ChannelOwnerType { Address, Member, CuratorGroup }\nlibrary ChannelOwnershipDecoder {\n\tfunction isAddress(ChannelOwnership memory _ownership) internal pure returns (bool) {\n\t\treturn _ownership.ownershipType == uint8(ChannelOwnerType.Address);\n\t}\n\n\tfunction isMember(ChannelOwnership memory _ownership) internal pure returns (bool) {\n\t\treturn _ownership.ownershipType == uint8(ChannelOwnerType.Member);\n\t}\n\n\tfunction isCuratorGroup(ChannelOwnership memory _ownership) internal pure returns (bool) {\n\t\treturn _ownership.ownershipType == uint8(ChannelOwnerType.CuratorGroup);\n\t}\n\n\tfunction asAddress(ChannelOwnership memory _ownership) internal pure returns (address) {\n\t\trequire(\n\t\t\tisAddress(_ownership),\n\t\t\t\"asAddress called on non-address ChannelOwnership\"\n\t\t);\n\t\treturn address(uint160(_ownership.ownerId));\n\t}\n\n\tfunction asMember(ChannelOwnership memory _ownership) internal pure returns (uint64) {\n\t\trequire(\n\t\t\tisMember(_ownership),\n\t\t\t\"asMember called on non-member ChannelOwnership\"\n\t\t);\n\t\treturn uint64(_ownership.ownerId);\n\t}\n\n\tfunction asCuratorGroup(ChannelOwnership memory _ownership) internal pure returns (uint16) {\n\t\trequire(\n\t\t\tisCuratorGroup(_ownership),\n\t\t\t\"asCuratorGroup called on non-group ChannelOwnership\"\n\t\t);\n\t\treturn uint16(_ownership.ownerId);\n\t}\n\n\tfunction isValid(ChannelOwnership memory _ownership) internal pure returns (bool) {\n\t\tif (isAddress(_ownership)) {\n\t\t\treturn uint256(uint160(asAddress(_ownership))) == _ownership.ownerId;\n\t\t}\n\t\tif (isMember(_ownership)) {\n\t\t\treturn uint256(asMember(_ownership)) == _ownership.ownerId;\n\t\t}\n\t\tif (isCuratorGroup(_ownership)) {\n\t\t\treturn uint256(asCuratorGroup(_ownership)) == _ownership.ownerId;\n\t\t}\n\t\treturn false;\n\t}\n}\n\ncontract ChannelStorage is Ownable {\n    mapping (uint64 => Channel) private channelById;\n\t// ownershipType => ownerId => channelCount double-map\n    mapping (uint8 => mapping(uint256 => uint32)) public channelCountByOwnership;\n    uint64 public nextChannelId = 1;\n\n\tusing SafeMath32 for uint32;\n\tusing SafeMath64 for uint64;\n\n\tfunction _incCountByOwnership (ChannelOwnership memory _ownership) internal view {\n\t\tchannelCountByOwnership[_ownership.ownershipType][_ownership.ownerId].add(1);\n\t}\n\n\tfunction _decCountByOwnership (ChannelOwnership memory _ownership) internal view {\n\t\tchannelCountByOwnership[_ownership.ownershipType][_ownership.ownerId].sub(1);\n\t}\n\n    function addChannel (ChannelOwnership memory _ownership) public onlyOwner returns (uint64) {\n\t\tuint64 channelId = nextChannelId;\n\t\t// Get storage ref\n\t\tChannel storage newChannel = channelById[channelId];\n\t\t// Populate the struct\n\t\tnewChannel.isExisting = true;\n\t\tnewChannel.ownership = _ownership; // TODO: Is this the right way to do this assignment?\n\t\t_incCountByOwnership(_ownership);\n\t\tnextChannelId.add(1);\n\t\treturn channelId;\n\t}\n\n\t// Get channel + perform existance check\n\tfunction getExistingChannel(uint64 _channelId) public view returns (Channel memory) {\n\t\tChannel memory channel = channelById[_channelId];\n\t\trequire(channel.isExisting, \"Trying to access unexisting channel\");\n\t\treturn channel;\n\t}\n\n    function updateOwnership (uint64 _channelId, ChannelOwnership memory _ownership) public onlyOwner {\n\t\tChannel storage channel = channelById[_channelId];\n\t\t_decCountByOwnership(channel.ownership);\n\t\tchannel.ownership = _ownership;\n\t\t_incCountByOwnership(_ownership);\n\t}\n\n    function updateStatus (uint64 _channelId, bool _isActive) public onlyOwner {\n\t\tChannel storage channel = channelById[_channelId];\n\t\tchannel.isActive = _isActive;\n\t}\n\n    function setChannelVideoLimit (uint64 _channelId, uint32 _videoLimit) public onlyOwner {\n\t\tChannel storage channel = channelById[_channelId];\n\t\tchannel.videoLimit = _videoLimit;\n\t}\n\n    function removeChannel (uint64 _channelId) public onlyOwner {\n\t\t_decCountByOwnership(channelById[_channelId].ownership);\n\t\tdelete channelById[_channelId];\n\t}\n}\n",
  "sourcePath": "/home/leszek/projects/joystream/joystream/smart-contracts/contracts/storage/ChannelStorage.sol",
  "compiler": {
    "name": "solc",
    "version": "0.6.12+commit.27d51765.Emscripten.clang"
  },
  "schemaVersion": "3.3.2",
  "updatedAt": "2020-11-17T12:09:37.577Z",
  "devdoc": {
    "kind": "dev",
    "methods": {
      "owner()": {
        "details": "Returns the address of the current owner."
      },
      "renounceOwnership()": {
        "details": "Leaves the contract without owner. It will not be possible to call `onlyOwner` functions anymore. Can only be called by the current owner. NOTE: Renouncing ownership will leave the contract without an owner, thereby removing any functionality that is only available to the owner."
      },
      "transferOwnership(address)": {
        "details": "Transfers ownership of the contract to a new account (`newOwner`). Can only be called by the current owner."
      }
    },
    "version": 1
  },
  "userdoc": {
    "kind": "user",
    "methods": {},
    "version": 1
  }
}