{
  "contractName": "ContentWorkingGroupBridge",
  "abi": [
    {
      "inputs": [
        {
          "internalType": "contract RuntimeAddressProvider",
          "name": "_provider",
          "type": "address"
        }
      ],
      "stateMutability": "nonpayable",
      "type": "constructor"
    },
    {
      "inputs": [],
      "name": "currentLeadAddress",
      "outputs": [
        {
          "internalType": "address",
          "name": "",
          "type": "address"
        }
      ],
      "stateMutability": "view",
      "type": "function"
    },
    {
      "inputs": [],
      "name": "runtimeAddressProvider",
      "outputs": [
        {
          "internalType": "contract RuntimeAddressProvider",
          "name": "",
          "type": "address"
        }
      ],
      "stateMutability": "view",
      "type": "function"
    },
    {
      "inputs": [
        {
          "internalType": "uint64",
          "name": "_curatorId",
          "type": "uint64"
        },
        {
          "internalType": "address",
          "name": "_address",
          "type": "address"
        }
      ],
      "name": "setCuratorAddress",
      "outputs": [],
      "stateMutability": "nonpayable",
      "type": "function"
    },
    {
      "inputs": [
        {
          "internalType": "address",
          "name": "_address",
          "type": "address"
        }
      ],
      "name": "setLeadAddress",
      "outputs": [],
      "stateMutability": "nonpayable",
      "type": "function"
    },
    {
      "inputs": [
        {
          "internalType": "bool",
          "name": "_status",
          "type": "bool"
        }
      ],
      "name": "setLeadStatus",
      "outputs": [],
      "stateMutability": "nonpayable",
      "type": "function"
    },
    {
      "inputs": [
        {
          "internalType": "address",
          "name": "_address",
          "type": "address"
        },
        {
          "internalType": "uint64",
          "name": "_curatorId",
          "type": "uint64"
        }
      ],
      "name": "isCurator",
      "outputs": [
        {
          "internalType": "bool",
          "name": "",
          "type": "bool"
        }
      ],
      "stateMutability": "view",
      "type": "function"
    },
    {
      "inputs": [
        {
          "internalType": "uint64",
          "name": "_curatorId",
          "type": "uint64"
        }
      ],
      "name": "curatorExists",
      "outputs": [
        {
          "internalType": "bool",
          "name": "",
          "type": "bool"
        }
      ],
      "stateMutability": "view",
      "type": "function"
    },
    {
      "inputs": [
        {
          "internalType": "address",
          "name": "_address",
          "type": "address"
        }
      ],
      "name": "isActiveLead",
      "outputs": [
        {
          "internalType": "bool",
          "name": "",
          "type": "bool"
        }
      ],
      "stateMutability": "view",
      "type": "function"
    }
  ],
  "bytecode": "0x60806040526002805460ff60a01b1916600160a01b17905534801561002357600080fd5b506040516106243803806106248339818101604052602081101561004657600080fd5b5051600080546001600160a01b039092166001600160a01b03199092169190911790556105ac806100786000396000f3fe608060405234801561001057600080fd5b50600436106100785760003560e01c80631cd2b43f1461007d5780631ec22327146100a55780632ca880d4146100df5780634ff5ae631461010357806371066956146101385780637a0020251461015e578063be7bbe051461017d578063e830b87014610185575b600080fd5b6100a36004803603602081101561009357600080fd5b50356001600160a01b03166101ba565b005b6100cb600480360360208110156100bb57600080fd5b50356001600160a01b031661029a565b604080519115158252519081900360200190f35b6100e76102c9565b604080516001600160a01b039092168252519081900360200190f35b6100a36004803603604081101561011957600080fd5b5080356001600160401b031690602001356001600160a01b03166102d8565b6100cb6004803603602081101561014e57600080fd5b50356001600160401b03166103cf565b6100a36004803603602081101561017457600080fd5b503515156103f5565b6100e76104d1565b6100cb6004803603604081101561019b57600080fd5b5080356001600160a01b031690602001356001600160401b03166104e0565b60008054906101000a90046001600160a01b03166001600160a01b031663ec30338c6040518163ffffffff1660e01b815260040160206040518083038186803b15801561020657600080fd5b505afa15801561021a573d6000803e3d6000fd5b505050506040513d602081101561023057600080fd5b50516001600160a01b031633146102785760405162461bcd60e51b815260040180806020018281038252603381526020018061050a6033913960400191505060405180910390fd5b600280546001600160a01b0319166001600160a01b0392909216919091179055565b600254600090600160a01b900460ff1680156102c357506002546001600160a01b038381169116145b92915050565b6000546001600160a01b031681565b60008054906101000a90046001600160a01b03166001600160a01b031663ec30338c6040518163ffffffff1660e01b815260040160206040518083038186803b15801561032457600080fd5b505afa158015610338573d6000803e3d6000fd5b505050506040513d602081101561034e57600080fd5b50516001600160a01b031633146103965760405162461bcd60e51b815260040180806020018281038252603381526020018061050a6033913960400191505060405180910390fd5b6001600160401b0391909116600090815260016020526040902080546001600160a01b0319166001600160a01b03909216919091179055565b6001600160401b03166000908152600160205260409020546001600160a01b0316151590565b60008054906101000a90046001600160a01b03166001600160a01b03166362bc0cd66040518163ffffffff1660e01b815260040160206040518083038186803b15801561044157600080fd5b505afa158015610455573d6000803e3d6000fd5b505050506040513d602081101561046b57600080fd5b50516001600160a01b031633146104b35760405162461bcd60e51b815260040180806020018281038252603a81526020018061053d603a913960400191505060405180910390fd5b60028054911515600160a01b0260ff60a01b19909216919091179055565b6002546001600160a01b031681565b6001600160401b03166000908152600160205260409020546001600160a01b039182169116149056fe546869732066756e6374696f6e2063616e206f6e6c792062652065786563757465642066726f6d207468652072756e74696d65546869732066756e6374696f6e2063616e206f6e6c79206265206578656375746564207468726f7567682070726f706f73616c2073797374656da264697066735822122051c692e5561d90d2203d3d52f23a90ffd3a449cfc02481a86c37a6eed1672e4f64736f6c634300060c0033",
  "immutableReferences": {},
  "source": "pragma solidity ^0.6.0;\n\nimport \"./auth.sol\";\n\ncontract ContentWorkingGroupBridge is RuntimeManageable {\n\t// A map of curatorId => evmAddress(roleKey)\n\tmapping (uint64 => address) private addressByCuratorId;\n\n\t// evmAddress(roleKey) of current lead\n    address public currentLeadAddress;\n\n\t// Lead status managed by the council\n    bool isLeadActive = true;\n\n\tconstructor (RuntimeAddressProvider _provider) public RuntimeManageable(_provider) {}\n\n    function setCuratorAddress(uint64 _curatorId, address _address) public onlyRuntime {\n\t\taddressByCuratorId[_curatorId] = _address;\n\t}\n\n    function setLeadAddress(address _address) public onlyRuntime {\n\t\tcurrentLeadAddress = _address;\n\t}\n\n    function setLeadStatus(bool _status) public onlyCouncil {\n\t\tisLeadActive = _status;\n\t}\n\n\tfunction isCurator(address _address, uint64 _curatorId) public view returns (bool) {\n\t\treturn addressByCuratorId[_curatorId] == _address;\n\t}\n\n\tfunction curatorExists(uint64 _curatorId) public view returns (bool) {\n\t\treturn addressByCuratorId[_curatorId] != address(0);\n\t}\n\n\tfunction isActiveLead(address _address) public view returns (bool) {\n\t\treturn isLeadActive && currentLeadAddress == _address;\n\t}\n}\n",
  "sourcePath": "/home/leszek/projects/joystream/joystream/smart-contracts/contracts/bridge/ContentWorkingGroupBridge.sol",
  "compiler": {
    "name": "solc",
    "version": "0.6.12+commit.27d51765.Emscripten.clang"
  },
  "schemaVersion": "3.3.2",
  "updatedAt": "2020-11-17T12:09:37.539Z",
  "devdoc": {
    "kind": "dev",
    "methods": {},
    "version": 1
  },
  "userdoc": {
    "kind": "user",
    "methods": {},
    "version": 1
  }
}