{
  "contractName": "ContentDirectory",
  "abi": [
    {
      "inputs": [
        {
          "internalType": "contract RuntimeAddressProvider",
          "name": "_provider",
          "type": "address"
        },
        {
          "internalType": "contract MembershipBridge",
          "name": "_membershipBridge",
          "type": "address"
        },
        {
          "internalType": "contract ContentWorkingGroupBridge",
          "name": "_contentWorkingGroupBridge",
          "type": "address"
        },
        {
          "internalType": "contract ChannelStorage",
          "name": "_channelStorage",
          "type": "address"
        },
        {
          "internalType": "contract VideoStorage",
          "name": "_videoStorage",
          "type": "address"
        },
        {
          "internalType": "contract CuratorGroupStorage",
          "name": "_curatorGroupStorage",
          "type": "address"
        }
      ],
      "stateMutability": "nonpayable",
      "type": "constructor"
    },
    {
      "anonymous": false,
      "inputs": [
        {
          "indexed": false,
          "internalType": "uint64",
          "name": "_id",
          "type": "uint64"
        },
        {
          "components": [
            {
              "internalType": "uint8",
              "name": "ownershipType",
              "type": "uint8"
            },
            {
              "internalType": "uint256",
              "name": "ownerId",
              "type": "uint256"
            }
          ],
          "indexed": false,
          "internalType": "struct ChannelOwnership",
          "name": "_ownership",
          "type": "tuple"
        },
        {
          "indexed": false,
          "internalType": "string[2][]",
          "name": "_metadata",
          "type": "string[2][]"
        }
      ],
      "name": "ChannelCreated",
      "type": "event"
    },
    {
      "anonymous": false,
      "inputs": [
        {
          "indexed": false,
          "internalType": "uint64",
          "name": "_id",
          "type": "uint64"
        },
        {
          "indexed": false,
          "internalType": "string",
          "name": "_reason",
          "type": "string"
        }
      ],
      "name": "ChannelDeactivated",
      "type": "event"
    },
    {
      "anonymous": false,
      "inputs": [
        {
          "indexed": false,
          "internalType": "uint64",
          "name": "_newLimit",
          "type": "uint64"
        }
      ],
      "name": "ChannelInstancesLimitUpdated",
      "type": "event"
    },
    {
      "anonymous": false,
      "inputs": [
        {
          "indexed": false,
          "internalType": "uint64",
          "name": "_id",
          "type": "uint64"
        },
        {
          "indexed": false,
          "internalType": "string[2][]",
          "name": "_metadata",
          "type": "string[2][]"
        }
      ],
      "name": "ChannelMetadataUpdated",
      "type": "event"
    },
    {
      "anonymous": false,
      "inputs": [
        {
          "indexed": false,
          "internalType": "uint64",
          "name": "_id",
          "type": "uint64"
        },
        {
          "components": [
            {
              "internalType": "uint8",
              "name": "ownershipType",
              "type": "uint8"
            },
            {
              "internalType": "uint256",
              "name": "ownerId",
              "type": "uint256"
            }
          ],
          "indexed": false,
          "internalType": "struct ChannelOwnership",
          "name": "_ownership",
          "type": "tuple"
        }
      ],
      "name": "ChannelOwnershipUpdated",
      "type": "event"
    },
    {
      "anonymous": false,
      "inputs": [
        {
          "indexed": false,
          "internalType": "uint64",
          "name": "_id",
          "type": "uint64"
        }
      ],
      "name": "ChannelReactivated",
      "type": "event"
    },
    {
      "anonymous": false,
      "inputs": [
        {
          "indexed": false,
          "internalType": "uint64",
          "name": "_id",
          "type": "uint64"
        },
        {
          "indexed": false,
          "internalType": "uint64",
          "name": "_newLimit",
          "type": "uint64"
        }
      ],
      "name": "ChannelVideoLimitUpdated",
      "type": "event"
    },
    {
      "anonymous": false,
      "inputs": [
        {
          "indexed": false,
          "internalType": "uint64",
          "name": "_curatorId",
          "type": "uint64"
        },
        {
          "indexed": false,
          "internalType": "uint16",
          "name": "_groupId",
          "type": "uint16"
        }
      ],
      "name": "CuratorAddedToGroup",
      "type": "event"
    },
    {
      "anonymous": false,
      "inputs": [
        {
          "indexed": false,
          "internalType": "uint64",
          "name": "_curatorId",
          "type": "uint64"
        }
      ],
      "name": "CuratorRemovedFromAllGroups",
      "type": "event"
    },
    {
      "anonymous": false,
      "inputs": [
        {
          "indexed": false,
          "internalType": "uint64",
          "name": "_curatorId",
          "type": "uint64"
        },
        {
          "indexed": false,
          "internalType": "uint16",
          "name": "_groupId",
          "type": "uint16"
        }
      ],
      "name": "CuratorRemovedFromGroup",
      "type": "event"
    },
    {
      "anonymous": false,
      "inputs": [
        {
          "indexed": false,
          "internalType": "address",
          "name": "_logic",
          "type": "address"
        },
        {
          "indexed": false,
          "internalType": "address",
          "name": "_videoStorage",
          "type": "address"
        },
        {
          "indexed": false,
          "internalType": "address",
          "name": "_channelStorage",
          "type": "address"
        },
        {
          "indexed": false,
          "internalType": "address",
          "name": "_curatorGroupStorage",
          "type": "address"
        }
      ],
      "name": "Migrated",
      "type": "event"
    },
    {
      "anonymous": false,
      "inputs": [
        {
          "indexed": false,
          "internalType": "address",
          "name": "account",
          "type": "address"
        }
      ],
      "name": "Paused",
      "type": "event"
    },
    {
      "anonymous": false,
      "inputs": [
        {
          "indexed": false,
          "internalType": "address",
          "name": "account",
          "type": "address"
        }
      ],
      "name": "Unpaused",
      "type": "event"
    },
    {
      "anonymous": false,
      "inputs": [
        {
          "indexed": false,
          "internalType": "uint64",
          "name": "_id",
          "type": "uint64"
        },
        {
          "indexed": false,
          "internalType": "uint64",
          "name": "_channelId",
          "type": "uint64"
        },
        {
          "indexed": false,
          "internalType": "string[2][]",
          "name": "_metadata",
          "type": "string[2][]"
        }
      ],
      "name": "VideoAdded",
      "type": "event"
    },
    {
      "anonymous": false,
      "inputs": [
        {
          "indexed": false,
          "internalType": "uint64",
          "name": "_id",
          "type": "uint64"
        },
        {
          "indexed": false,
          "internalType": "string",
          "name": "_reason",
          "type": "string"
        }
      ],
      "name": "VideoDeactivated",
      "type": "event"
    },
    {
      "anonymous": false,
      "inputs": [
        {
          "indexed": false,
          "internalType": "uint64",
          "name": "_id",
          "type": "uint64"
        },
        {
          "indexed": false,
          "internalType": "string[2][]",
          "name": "_metadata",
          "type": "string[2][]"
        }
      ],
      "name": "VideoMetadataUpdated",
      "type": "event"
    },
    {
      "anonymous": false,
      "inputs": [
        {
          "indexed": false,
          "internalType": "uint64",
          "name": "_id",
          "type": "uint64"
        }
      ],
      "name": "VideoReactivated",
      "type": "event"
    },
    {
      "anonymous": false,
      "inputs": [
        {
          "indexed": false,
          "internalType": "uint64",
          "name": "_id",
          "type": "uint64"
        }
      ],
      "name": "VideoRemoved",
      "type": "event"
    },
    {
      "anonymous": false,
      "inputs": [
        {
          "indexed": false,
          "internalType": "uint64",
          "name": "_id",
          "type": "uint64"
        },
        {
          "indexed": false,
          "internalType": "string",
          "name": "_reason",
          "type": "string"
        }
      ],
      "name": "VideoRemovedByCurator",
      "type": "event"
    },
    {
      "anonymous": false,
      "inputs": [
        {
          "indexed": false,
          "internalType": "uint32",
          "name": "_newLimit",
          "type": "uint32"
        }
      ],
      "name": "VideosPerChannelDefaultLimitUpdated",
      "type": "event"
    },
    {
      "anonymous": false,
      "inputs": [
        {
          "indexed": false,
          "internalType": "uint32",
          "name": "_newLimit",
          "type": "uint32"
        }
      ],
      "name": "VideosPerChannelMaxLimitUpdated",
      "type": "event"
    },
    {
      "inputs": [],
      "name": "paused",
      "outputs": [
        {
          "internalType": "bool",
          "name": "",
          "type": "bool"
        }
      ],
      "stateMutability": "view",
      "type": "function"
    },
    {
      "inputs": [],
      "name": "runtimeAddressProvider",
      "outputs": [
        {
          "internalType": "contract RuntimeAddressProvider",
          "name": "",
          "type": "address"
        }
      ],
      "stateMutability": "view",
      "type": "function"
    },
    {
      "inputs": [
        {
          "internalType": "uint64",
          "name": "_newLimit",
          "type": "uint64"
        }
      ],
      "name": "setChannelInstancesLimit",
      "outputs": [],
      "stateMutability": "nonpayable",
      "type": "function"
    },
    {
      "inputs": [
        {
          "internalType": "uint32",
          "name": "_newLimit",
          "type": "uint32"
        }
      ],
      "name": "setVideosPerChannelDefaultLimit",
      "outputs": [],
      "stateMutability": "nonpayable",
      "type": "function"
    },
    {
      "inputs": [
        {
          "internalType": "uint32",
          "name": "_newLimit",
          "type": "uint32"
        }
      ],
      "name": "setVideosPerChannelMaxLimit",
      "outputs": [],
      "stateMutability": "nonpayable",
      "type": "function"
    },
    {
      "inputs": [],
      "name": "pause",
      "outputs": [],
      "stateMutability": "nonpayable",
      "type": "function"
    },
    {
      "inputs": [],
      "name": "unpause",
      "outputs": [],
      "stateMutability": "nonpayable",
      "type": "function"
    },
    {
      "inputs": [
        {
          "internalType": "address",
          "name": "_newLogic",
          "type": "address"
        },
        {
          "internalType": "address",
          "name": "_newVideoStorage",
          "type": "address"
        },
        {
          "internalType": "address",
          "name": "_newChannelStorage",
          "type": "address"
        },
        {
          "internalType": "address",
          "name": "_newCuratorGroupStorage",
          "type": "address"
        }
      ],
      "name": "migrate",
      "outputs": [],
      "stateMutability": "nonpayable",
      "type": "function"
    },
    {
      "inputs": [
        {
          "components": [
            {
              "internalType": "uint8",
              "name": "ownershipType",
              "type": "uint8"
            },
            {
              "internalType": "uint256",
              "name": "ownerId",
              "type": "uint256"
            }
          ],
          "internalType": "struct ChannelOwnership",
          "name": "_ownership",
          "type": "tuple"
        },
        {
          "internalType": "string[2][]",
          "name": "_metadata",
          "type": "string[2][]"
        }
      ],
      "name": "createChannel",
      "outputs": [],
      "stateMutability": "nonpayable",
      "type": "function"
    },
    {
      "inputs": [
        {
          "internalType": "uint64",
          "name": "_channelId",
          "type": "uint64"
        },
        {
          "internalType": "string[2][]",
          "name": "_metadata",
          "type": "string[2][]"
        }
      ],
      "name": "updateChannelMetadata",
      "outputs": [],
      "stateMutability": "nonpayable",
      "type": "function"
    },
    {
      "inputs": [
        {
          "internalType": "uint64",
          "name": "_channelId",
          "type": "uint64"
        },
        {
          "components": [
            {
              "internalType": "uint8",
              "name": "ownershipType",
              "type": "uint8"
            },
            {
              "internalType": "uint256",
              "name": "ownerId",
              "type": "uint256"
            }
          ],
          "internalType": "struct ChannelOwnership",
          "name": "_ownership",
          "type": "tuple"
        }
      ],
      "name": "updateChannelOwnership",
      "outputs": [],
      "stateMutability": "nonpayable",
      "type": "function"
    },
    {
      "inputs": [
        {
          "internalType": "uint64",
          "name": "_channelId",
          "type": "uint64"
        },
        {
          "internalType": "uint32",
          "name": "_limit",
          "type": "uint32"
        }
      ],
      "name": "updateChannelVideoLimit",
      "outputs": [],
      "stateMutability": "nonpayable",
      "type": "function"
    },
    {
      "inputs": [
        {
          "internalType": "uint64",
          "name": "_channelId",
          "type": "uint64"
        },
        {
          "internalType": "string",
          "name": "_reason",
          "type": "string"
        }
      ],
      "name": "deactivateChannel",
      "outputs": [],
      "stateMutability": "nonpayable",
      "type": "function"
    },
    {
      "inputs": [
        {
          "internalType": "uint64",
          "name": "_channelId",
          "type": "uint64"
        }
      ],
      "name": "activateChannel",
      "outputs": [],
      "stateMutability": "nonpayable",
      "type": "function"
    },
    {
      "inputs": [
        {
          "internalType": "uint64",
          "name": "_curatorId",
          "type": "uint64"
        },
        {
          "internalType": "uint16",
          "name": "_groupId",
          "type": "uint16"
        }
      ],
      "name": "addCuratorToGroup",
      "outputs": [],
      "stateMutability": "nonpayable",
      "type": "function"
    },
    {
      "inputs": [
        {
          "internalType": "uint64",
          "name": "_curatorId",
          "type": "uint64"
        },
        {
          "internalType": "uint16",
          "name": "_groupId",
          "type": "uint16"
        }
      ],
      "name": "removeCuratorFromGroup",
      "outputs": [],
      "stateMutability": "nonpayable",
      "type": "function"
    },
    {
      "inputs": [
        {
          "internalType": "uint64",
          "name": "_curatorId",
          "type": "uint64"
        }
      ],
      "name": "removeCuratorFromAllGroups",
      "outputs": [],
      "stateMutability": "nonpayable",
      "type": "function"
    },
    {
      "inputs": [
        {
          "internalType": "uint16",
          "name": "_groupId",
          "type": "uint16"
        }
      ],
      "name": "removeCuratorGroup",
      "outputs": [],
      "stateMutability": "nonpayable",
      "type": "function"
    },
    {
      "inputs": [
        {
          "internalType": "uint64",
          "name": "_channelId",
          "type": "uint64"
        },
        {
          "internalType": "string[2][]",
          "name": "_metadata",
          "type": "string[2][]"
        }
      ],
      "name": "addVideo",
      "outputs": [],
      "stateMutability": "nonpayable",
      "type": "function"
    },
    {
      "inputs": [
        {
          "internalType": "uint64",
          "name": "_videoId",
          "type": "uint64"
        },
        {
          "internalType": "string[2][]",
          "name": "_metadata",
          "type": "string[2][]"
        }
      ],
      "name": "updateVideoMetadata",
      "outputs": [],
      "stateMutability": "nonpayable",
      "type": "function"
    },
    {
      "inputs": [
        {
          "internalType": "uint64",
          "name": "_videoId",
          "type": "uint64"
        }
      ],
      "name": "removeVideo",
      "outputs": [],
      "stateMutability": "nonpayable",
      "type": "function"
    },
    {
      "inputs": [
        {
          "internalType": "uint64",
          "name": "_videoId",
          "type": "uint64"
        },
        {
          "internalType": "string",
          "name": "_reason",
          "type": "string"
        }
      ],
      "name": "removeVideoAsCurator",
      "outputs": [],
      "stateMutability": "nonpayable",
      "type": "function"
    },
    {
      "inputs": [
        {
          "internalType": "uint64",
          "name": "_videoId",
          "type": "uint64"
        },
        {
          "internalType": "string",
          "name": "_reason",
          "type": "string"
        }
      ],
      "name": "deactivateVideo",
      "outputs": [],
      "stateMutability": "nonpayable",
      "type": "function"
    },
    {
      "inputs": [
        {
          "internalType": "uint64",
          "name": "_videoId",
          "type": "uint64"
        }
      ],
      "name": "activateVideo",
      "outputs": [],
      "stateMutability": "nonpayable",
      "type": "function"
    }
  ],
  "bytecode": "0x608060405260058054600160a01b600160e01b031916600560a11b176001600160e01b0316600560e01b179055600680546103e863ffffffff199091161790553480156200004c57600080fd5b5060405162004019380380620040198339810160408190526200006f91620000e9565b600080546001600160a01b03199081166001600160a01b039889161760ff60a01b191690915560048054821696881696909617909555600580548616948716949094179093556001805485169286169290921790915560028054841691851691909117905560038054909216921691909117905562000195565b60008060008060008060c0878903121562000102578182fd5b86516200010f816200017c565b602088015190965062000122816200017c565b604088015190955062000135816200017c565b606088015190945062000148816200017c565b60808801519093506200015b816200017c565b60a08801519092506200016e816200017c565b809150509295509295509295565b6001600160a01b03811681146200019257600080fd5b50565b613e7480620001a56000396000f3fe608060405234801561001057600080fd5b50600436106101285760003560e01c80630333f5361461012d5780630d00a78f1461014257806311ff105e1461015557806313c6e4ed146101685780632ca880d41461017b5780633f4ba83a1461019957806344ff3e81146101a15780634d70d709146101b45780635c975abb146101c757806372c95f83146101dc57806375ef1f1e146101ef5780638456cb59146102025780638edaea6e1461020a57806396cbd61b1461021d5780639a055bbf146102305780639da9f33514610243578063a51a83f214610256578063ae90430a14610269578063b94c9c9d1461027c578063be16b3531461028f578063c251e585146102a2578063d8b457fc146102b5578063e30ac74e146102c8578063eb1762d7146102db575b600080fd5b61014061013b366004613301565b6102ee565b005b61014061015036600461318e565b6104a3565b6101406101633660046131e2565b6106af565b61014061017636600461301d565b6108cd565b610183610ab2565b604051610190919061340a565b60405180910390f35b610140610ac1565b6101406101af366004613251565b610b7f565b6101406101c236600461321a565b610d36565b6101cf610fdf565b604051610190919061346b565b6101406101ea3660046131e2565b610fef565b6101406101fd3660046131e2565b611102565b6101406112a0565b610140610218366004613251565b61135c565b61014061022b3660046131e2565b611586565b61014061023e3660046131e2565b611702565b6101406102513660046131aa565b611911565b610140610264366004613251565b611a3d565b6101406102773660046131aa565b611c7e565b61014061028a36600461321a565b611dab565b61014061029d3660046132c9565b611f8f565b6101406102b036600461321a565b6121b2565b6101406102c33660046132c9565b61230c565b6101406102d6366004612fa2565b6125c7565b6101406102e9366004613294565b612763565b600054600160a01b900460ff16156103215760405162461bcd60e51b81526004016103189061372f565b60405180910390fd5b610329612dad565b60015460405163678d913d60e01b81526001600160a01b039091169063678d913d90610359908690600401613c67565b60a06040518083038186803b15801561037157600080fd5b505afa158015610385573d6000803e3d6000fd5b505050506040513d601f19601f820116820180604052508101906103a99190613069565b90506103b9338260000151612930565b6103d55760405162461bcd60e51b815260040161031890613b1a565b60065463ffffffff90811690831611156104015760405162461bcd60e51b8152600401610318906137f2565b6001546040516364c8121f60e01b81526001600160a01b03909116906364c8121f906104339086908690600401613d58565b600060405180830381600087803b15801561044d57600080fd5b505af1158015610461573d6000803e3d6000fd5b505050507f352e5a9ddfcadef33ec611971e6cabd1b96b665c0c773ab0d2f9aa14d3b484378383604051610496929190613d58565b60405180910390a1505050565b600054600160a01b900460ff16156104cd5760405162461bcd60e51b81526004016103189061372f565b6104d63361295f565b6104f25760405162461bcd60e51b815260040161031890613ab4565b6104fa612ddb565b600354604051631003065b60e21b81526001600160a01b039091169063400c196c9061052a908590600401613c47565b604080518083038186803b15801561054157600080fd5b505afa158015610555573d6000803e3d6000fd5b505050506040513d601f19601f8201168201806040525081019061057991906130fa565b9050806020015163ffffffff166000146105a55760405162461bcd60e51b815260040161031890613b41565b6001546001600160a01b03166371fff9c56002846040518363ffffffff1660e01b81526004016105d6929190613da3565b60206040518083038186803b1580156105ee57600080fd5b505afa158015610602573d6000803e3d6000fd5b505050506040513d601f19601f8201168201806040525081019061062691906131c6565b63ffffffff16156106495760405162461bcd60e51b81526004016103189061369d565b600354604051631e5edb8160e11b81526001600160a01b0390911690633cbdb70290610679908590600401613c47565b600060405180830381600087803b15801561069357600080fd5b505af11580156106a7573d6000803e3d6000fd5b505050505050565b600054600160a01b900460ff16156106d95760405162461bcd60e51b81526004016103189061372f565b6106e1612df2565b60025460405163750a106360e01b81526001600160a01b039091169063750a106390610711908590600401613c67565b60606040518083038186803b15801561072957600080fd5b505afa15801561073d573d6000803e3d6000fd5b505050506040513d601f19601f82011682018060405250810190610761919061313b565b905061076b612dad565b600154825160405163678d913d60e01b81526001600160a01b039092169163678d913d9161079b91600401613c67565b60a06040518083038186803b1580156107b357600080fd5b505afa1580156107c7573d6000803e3d6000fd5b505050506040513d601f19601f820116820180604052508101906107eb9190613069565b90506107fb338260000151612930565b6108175760405162461bcd60e51b815260040161031890613b1a565b8160200151156108395760405162461bcd60e51b81526004016103189061366f565b60025460405163b5b9dc9160e01b81526001600160a01b039091169063b5b9dc919061086c908690600190600401613ca7565b600060405180830381600087803b15801561088657600080fd5b505af115801561089a573d6000803e3d6000fd5b505050507f2d8dcea899443d25755914a7b607b6f35803f7021d4bbd6b3751703ef93ad0f9836040516104969190613c67565b600054600160a01b900460ff16156108f75760405162461bcd60e51b81526004016103189061372f565b610900826129e8565b61091c5760405162461bcd60e51b815260040161031890613611565b6005546001546040805162f4606f60e81b81529051600160a01b9093046001600160401b0316926001600160a01b039092169163f4606f0091600480820192602092909190829003018186803b15801561097557600080fd5b505afa158015610989573d6000803e3d6000fd5b505050506040513d601f19601f820116820180604052508101906109ad91906131fe565b6001600160401b031611156109d45760405162461bcd60e51b8152600401610318906135da565b6109de3383612a74565b6109fa5760405162461bcd60e51b8152600401610318906134a4565b600154604051631c6a427b60e31b81526000916001600160a01b03169063e35213d890610a2b908690600401613c39565b602060405180830381600087803b158015610a4557600080fd5b505af1158015610a59573d6000803e3d6000fd5b505050506040513d601f19601f82011682018060405250810190610a7d91906131fe565b90507f8471ac76eed4fd351411fc932eab0d50749b8c1a424687616ce8969d94f290ca81848460405161049693929190613d03565b6000546001600160a01b031681565b60008054906101000a90046001600160a01b03166001600160a01b03166362bc0cd66040518163ffffffff1660e01b815260040160206040518083038186803b158015610b0d57600080fd5b505afa158015610b21573d6000803e3d6000fd5b505050506040513d601f19601f82011682018060405250810190610b459190612f7f565b6001600160a01b0316336001600160a01b031614610b755760405162461bcd60e51b8152600401610318906138a4565b610b7d612b85565b565b600054600160a01b900460ff1615610ba95760405162461bcd60e51b81526004016103189061372f565b610bb1612dad565b60015460405163678d913d60e01b81526001600160a01b039091169063678d913d90610be1908690600401613c67565b60a06040518083038186803b158015610bf957600080fd5b505afa158015610c0d573d6000803e3d6000fd5b505050506040513d601f19601f82011682018060405250810190610c319190613069565b9050610c41338260000151612930565b610c5d5760405162461bcd60e51b815260040161031890613b1a565b8060200151610c7e5760405162461bcd60e51b815260040161031890613a7f565b600282511015610ca05760405162461bcd60e51b8152600401610318906134ea565b60015460405163b5b9dc9160e01b81526001600160a01b039091169063b5b9dc9190610cd3908690600090600401613ca7565b600060405180830381600087803b158015610ced57600080fd5b505af1158015610d01573d6000803e3d6000fd5b505050507fac1583ef0ca4644b771be9cff6935d3533d0adfccd12b257ea34593a9405a8748383604051610496929190613cc2565b600054600160a01b900460ff1615610d605760405162461bcd60e51b81526004016103189061372f565b610d68612dad565b60015460405163678d913d60e01b81526001600160a01b039091169063678d913d90610d98908690600401613c67565b60a06040518083038186803b158015610db057600080fd5b505afa158015610dc4573d6000803e3d6000fd5b505050506040513d601f19601f82011682018060405250810190610de89190613069565b9050610df8338260000151612a74565b80610e0e5750610e0e3382600001516001612bfb565b610e2a5760405162461bcd60e51b815260040161031890613b1a565b8060200151610e4b5760405162461bcd60e51b815260040161031890613a30565b6000816040015163ffffffff1660001415610e7557600554600160e01b900463ffffffff16610e7b565b81604001515b600254604051628294c160e11b815291925063ffffffff8316916001600160a01b0390911690630105298290610eb5908890600401613c67565b60206040518083038186803b158015610ecd57600080fd5b505afa158015610ee1573d6000803e3d6000fd5b505050506040513d601f19601f82011682018060405250810190610f0591906131fe565b6001600160401b031610610f1857600080fd5b6002546040516313b1aa3f60e31b81526000916001600160a01b031690639d8d51f890610f49908890600401613c67565b602060405180830381600087803b158015610f6357600080fd5b505af1158015610f77573d6000803e3d6000fd5b505050506040513d601f19601f82011682018060405250810190610f9b91906131fe565b90507fe410e3564249423983b096bc44efa22aca4f7ba32f9aa07dca10910cb859689b818686604051610fd093929190613d77565b60405180910390a15050505050565b600054600160a01b900460ff1690565b60008054906101000a90046001600160a01b03166001600160a01b03166362bc0cd66040518163ffffffff1660e01b815260040160206040518083038186803b15801561103b57600080fd5b505afa15801561104f573d6000803e3d6000fd5b505050506040513d601f19601f820116820180604052508101906110739190612f7f565b6001600160a01b0316336001600160a01b0316146110a35760405162461bcd60e51b8152600401610318906138a4565b60058054600160a01b600160e01b031916600160a01b6001600160401b038416021790556040517fa234354155278a122a79de09e47c7bb0793b5c6f69d0870a46f758e50a00446f906110f7908390613c67565b60405180910390a150565b600054600160a01b900460ff161561112c5760405162461bcd60e51b81526004016103189061372f565b611134612dad565b60015460405163678d913d60e01b81526001600160a01b039091169063678d913d90611164908590600401613c67565b60a06040518083038186803b15801561117c57600080fd5b505afa158015611190573d6000803e3d6000fd5b505050506040513d601f19601f820116820180604052508101906111b49190613069565b90506111c4338260000151612930565b6111e05760405162461bcd60e51b815260040161031890613b1a565b8060200151156112025760405162461bcd60e51b815260040161031890613aea565b6001805460405163b5b9dc9160e01b81526001600160a01b039091169163b5b9dc9191611233918691600401613ca7565b600060405180830381600087803b15801561124d57600080fd5b505af1158015611261573d6000803e3d6000fd5b505050507f46dd4cb3caf3352a6088116e52d560593e4b8720047256bc5738237dec1fe387826040516112949190613c67565b60405180910390a15050565b60008054906101000a90046001600160a01b03166001600160a01b03166362bc0cd66040518163ffffffff1660e01b815260040160206040518083038186803b1580156112ec57600080fd5b505afa158015611300573d6000803e3d6000fd5b505050506040513d601f19601f820116820180604052508101906113249190612f7f565b6001600160a01b0316336001600160a01b0316146113545760405162461bcd60e51b8152600401610318906138a4565b610b7d612c04565b600054600160a01b900460ff16156113865760405162461bcd60e51b81526004016103189061372f565b61138e612df2565b60025460405163750a106360e01b81526001600160a01b039091169063750a1063906113be908690600401613c67565b60606040518083038186803b1580156113d657600080fd5b505afa1580156113ea573d6000803e3d6000fd5b505050506040513d601f19601f8201168201806040525081019061140e919061313b565b9050611418612dad565b600154825160405163678d913d60e01b81526001600160a01b039092169163678d913d9161144891600401613c67565b60a06040518083038186803b15801561146057600080fd5b505afa158015611474573d6000803e3d6000fd5b505050506040513d601f19601f820116820180604052508101906114989190613069565b90506114a8338260000151612930565b6114c45760405162461bcd60e51b815260040161031890613b1a565b60028351116114e55760405162461bcd60e51b8152600401610318906134ea565b600254604051639a055bbf60e01b81526001600160a01b0390911690639a055bbf90611515908790600401613c67565b600060405180830381600087803b15801561152f57600080fd5b505af1158015611543573d6000803e3d6000fd5b505050507f4fa4eab72679f15f58e711bb7a122ff036c272d75aa3857b401782af2fd8ea438484604051611578929190613cc2565b60405180910390a150505050565b600054600160a01b900460ff16156115b05760405162461bcd60e51b81526004016103189061372f565b6115b93361295f565b6115d55760405162461bcd60e51b815260040161031890613ab4565b60055460405163388334ab60e11b81526001600160a01b0390911690637106695690611605908490600401613c67565b60206040518083038186803b15801561161d57600080fd5b505afa158015611631573d6000803e3d6000fd5b505050506040513d601f19601f820116820180604052508101906116559190612ffd565b6116715760405162461bcd60e51b815260040161031890613759565b6003546040516396cbd61b60e01b81526001600160a01b03909116906396cbd61b906116a1908490600401613c67565b600060405180830381600087803b1580156116bb57600080fd5b505af11580156116cf573d6000803e3d6000fd5b505050507f97c2ae95ac83b91a5a298dab10c65cd756b98181999089e6826e65fbdac20926816040516110f79190613c67565b600054600160a01b900460ff161561172c5760405162461bcd60e51b81526004016103189061372f565b611734612df2565b60025460405163750a106360e01b81526001600160a01b039091169063750a106390611764908590600401613c67565b60606040518083038186803b15801561177c57600080fd5b505afa158015611790573d6000803e3d6000fd5b505050506040513d601f19601f820116820180604052508101906117b4919061313b565b90506117be612dad565b600154825160405163678d913d60e01b81526001600160a01b039092169163678d913d916117ee91600401613c67565b60a06040518083038186803b15801561180657600080fd5b505afa15801561181a573d6000803e3d6000fd5b505050506040513d601f19601f8201168201806040525081019061183e9190613069565b905061184e338260000151612a74565b8061186457506118643382600001516003612bfb565b6118805760405162461bcd60e51b815260040161031890613b1a565b600254604051639a055bbf60e01b81526001600160a01b0390911690639a055bbf906118b0908690600401613c67565b600060405180830381600087803b1580156118ca57600080fd5b505af11580156118de573d6000803e3d6000fd5b505050507f8f75fc93671c07b9e40b8bbe17e3a620511136319755e9481845aafca8dc1aa1836040516104969190613c67565b60008054906101000a90046001600160a01b03166001600160a01b03166362bc0cd66040518163ffffffff1660e01b815260040160206040518083038186803b15801561195d57600080fd5b505afa158015611971573d6000803e3d6000fd5b505050506040513d601f19601f820116820180604052508101906119959190612f7f565b6001600160a01b0316336001600160a01b0316146119c55760405162461bcd60e51b8152600401610318906138a4565b60055463ffffffff600160e01b909104811690821610156119f85760405162461bcd60e51b8152600401610318906139b4565b6006805463ffffffff191663ffffffff83161790556040517f6a101addaeb36f0540c39e9da515b78ec6a64a7afc1353ad453cac27c20019e2906110f7908390613c56565b600054600160a01b900460ff1615611a675760405162461bcd60e51b81526004016103189061372f565b611a6f612df2565b60025460405163750a106360e01b81526001600160a01b039091169063750a106390611a9f908690600401613c67565b60606040518083038186803b158015611ab757600080fd5b505afa158015611acb573d6000803e3d6000fd5b505050506040513d601f19601f82011682018060405250810190611aef919061313b565b9050611af9612dad565b600154825160405163678d913d60e01b81526001600160a01b039092169163678d913d91611b2991600401613c67565b60a06040518083038186803b158015611b4157600080fd5b505afa158015611b55573d6000803e3d6000fd5b505050506040513d601f19601f82011682018060405250810190611b799190613069565b9050611b89338260000151612930565b611ba55760405162461bcd60e51b815260040161031890613b1a565b8160200151611bc65760405162461bcd60e51b81526004016103189061363c565b600283511015611be85760405162461bcd60e51b8152600401610318906134ea565b60025460405163b5b9dc9160e01b81526001600160a01b039091169063b5b9dc9190611c1b908790600090600401613ca7565b600060405180830381600087803b158015611c3557600080fd5b505af1158015611c49573d6000803e3d6000fd5b505050507fe4a6189a3a227169fa9e9a63e2a0fb3eed9e24a6fcfb924b0aad2e383c38b6e18484604051611578929190613cc2565b60008054906101000a90046001600160a01b03166001600160a01b03166362bc0cd66040518163ffffffff1660e01b815260040160206040518083038186803b158015611cca57600080fd5b505afa158015611cde573d6000803e3d6000fd5b505050506040513d601f19601f82011682018060405250810190611d029190612f7f565b6001600160a01b0316336001600160a01b031614611d325760405162461bcd60e51b8152600401610318906138a4565b60065463ffffffff9081169082161115611d5e5760405162461bcd60e51b815260040161031890613b85565b600580546001600160e01b0316600160e01b63ffffffff8416021790556040517f98963f0532a697d7898270c055c3b680774afb0ef5c1dbfeac5667b93277a429906110f7908390613c56565b600054600160a01b900460ff1615611dd55760405162461bcd60e51b81526004016103189061372f565b611ddd612df2565b60025460405163750a106360e01b81526001600160a01b039091169063750a106390611e0d908690600401613c67565b60606040518083038186803b158015611e2557600080fd5b505afa158015611e39573d6000803e3d6000fd5b505050506040513d601f19601f82011682018060405250810190611e5d919061313b565b9050611e67612dad565b600154825160405163678d913d60e01b81526001600160a01b039092169163678d913d91611e9791600401613c67565b60a06040518083038186803b158015611eaf57600080fd5b505afa158015611ec3573d6000803e3d6000fd5b505050506040513d601f19601f82011682018060405250810190611ee79190613069565b9050611ef7338260000151612a74565b80611f0d5750611f0d3382600001516002612bfb565b80611f215750611f21338260000151612930565b611f3d5760405162461bcd60e51b815260040161031890613b1a565b8060200151611f5e5760405162461bcd60e51b815260040161031890613849565b7f6ae15f9316c5fc53e8e2372fd9e88f97030a66b96d398650f6ba0399ac0d91b48484604051611578929190613c7b565b600054600160a01b900460ff1615611fb95760405162461bcd60e51b81526004016103189061372f565b611fc23361295f565b611fde5760405162461bcd60e51b815260040161031890613ab4565b600354604051636f375b3760e11b81526001600160a01b039091169063de6eb66e9061200e908490600401613c47565b60206040518083038186803b15801561202657600080fd5b505afa15801561203a573d6000803e3d6000fd5b505050506040513d601f19601f8201168201806040525081019061205e9190612ffd565b61207a5760405162461bcd60e51b8152600401610318906137c1565b60035460405163528d054360e11b81526001600160a01b039091169063a51a0a86906120ac9085908590600401613d3b565b60206040518083038186803b1580156120c457600080fd5b505afa1580156120d8573d6000803e3d6000fd5b505050506040513d601f19601f820116820180604052508101906120fc9190612ffd565b151560011461211d5760405162461bcd60e51b815260040161031890613bf6565b60035460405163be16b35360e01b81526001600160a01b039091169063be16b3539061214f9085908590600401613d3b565b600060405180830381600087803b15801561216957600080fd5b505af115801561217d573d6000803e3d6000fd5b505050507f509b6f4e4a643a51ebb76e1f4d63753e23c00161d81385e3d92122aa081070998282604051611294929190613d3b565b600054600160a01b900460ff16156121dc5760405162461bcd60e51b81526004016103189061372f565b6121e4612dad565b60015460405163678d913d60e01b81526001600160a01b039091169063678d913d90612214908690600401613c67565b60a06040518083038186803b15801561222c57600080fd5b505afa158015612240573d6000803e3d6000fd5b505050506040513d601f19601f820116820180604052508101906122649190613069565b9050612274338260000151612a74565b806122885750612288338260000151612930565b8061229e575061229e3382600001516000612bfb565b6122ba5760405162461bcd60e51b815260040161031890613b1a565b80602001516122db5760405162461bcd60e51b81526004016103189061378c565b7f123e1f2e117cd190e1cfbe2a43d5f0247033690e4efb749b6e2b8cca75e0d3668383604051610496929190613c7b565b600054600160a01b900460ff16156123365760405162461bcd60e51b81526004016103189061372f565b61233f3361295f565b61235b5760405162461bcd60e51b815260040161031890613ab4565b60055460405163388334ab60e11b81526001600160a01b039091169063710669569061238b908590600401613c67565b60206040518083038186803b1580156123a357600080fd5b505afa1580156123b7573d6000803e3d6000fd5b505050506040513d601f19601f820116820180604052508101906123db9190612ffd565b6123f75760405162461bcd60e51b815260040161031890613759565b600354604051636f375b3760e11b81526001600160a01b039091169063de6eb66e90612427908490600401613c47565b60206040518083038186803b15801561243f57600080fd5b505afa158015612453573d6000803e3d6000fd5b505050506040513d601f19601f820116820180604052508101906124779190612ffd565b6124935760405162461bcd60e51b8152600401610318906137c1565b60035460405163528d054360e11b81526001600160a01b039091169063a51a0a86906124c59085908590600401613d3b565b60206040518083038186803b1580156124dd57600080fd5b505afa1580156124f1573d6000803e3d6000fd5b505050506040513d601f19601f820116820180604052508101906125159190612ffd565b156125325760405162461bcd60e51b8152600401610318906138fe565b60035460405163362d15ff60e21b81526001600160a01b039091169063d8b457fc906125649085908590600401613d3b565b600060405180830381600087803b15801561257e57600080fd5b505af1158015612592573d6000803e3d6000fd5b505050507f999834ed6c0c90437cd70656e57e667804b476062c06bf59612ee7e6737d007a8282604051611294929190613d3b565b60008054906101000a90046001600160a01b03166001600160a01b03166362bc0cd66040518163ffffffff1660e01b815260040160206040518083038186803b15801561261357600080fd5b505afa158015612627573d6000803e3d6000fd5b505050506040513d601f19601f8201168201806040525081019061264b9190612f7f565b6001600160a01b0316336001600160a01b03161461267b5760405162461bcd60e51b8152600401610318906138a4565b600254612692906001600160a01b03168486612c6a565b6001546126a9906001600160a01b03168386612c6a565b6003546126c0906001600160a01b03168286612c6a565b7f415f0af8f5b6deaac4fa61971b0153fa777da7c922b5f0031947b017bd0658d1846001600160a01b038516156126f75784612704565b6002546001600160a01b03165b6001600160a01b038516156127195784612726565b6001546001600160a01b03165b6001600160a01b0385161561273b5784612748565b6003546001600160a01b03165b604051612758949392919061341e565b60405180910390a133ff5b600054600160a01b900460ff161561278d5760405162461bcd60e51b81526004016103189061372f565b612795612dad565b60015460405163678d913d60e01b81526001600160a01b039091169063678d913d906127c5908690600401613c67565b60a06040518083038186803b1580156127dd57600080fd5b505afa1580156127f1573d6000803e3d6000fd5b505050506040513d601f19601f820116820180604052508101906128159190613069565b9050612825338260000151612a74565b6128415760405162461bcd60e51b815260040161031890613985565b61284a826129e8565b6128665760405162461bcd60e51b815260040161031890613611565b61286f82612cd0565b158061287f575061287f3361295f565b61289b5760405162461bcd60e51b8152600401610318906136e1565b60015460405163199b26e560e11b81526001600160a01b03909116906333364dca906128cd9086908690600401613ce6565b600060405180830381600087803b1580156128e757600080fd5b505af11580156128fb573d6000803e3d6000fd5b505050507f2e95886722a90513837fce57d448fdad9e03cad92ffa72904ba909ccd96e24708383604051610496929190613ce6565b600061293b82612cd0565b61294d5761294883612ce8565b612956565b6129568361295f565b90505b92915050565b600554604051631ec2232760e01b81526000916001600160a01b031690631ec223279061299090859060040161340a565b60206040518083038186803b1580156129a857600080fd5b505afa1580156129bc573d6000803e3d6000fd5b505050506040513d601f19601f820116820180604052508101906129e09190612ffd565b90505b919050565b60006129f382612d1b565b15612a17578160200151612a0683612d23565b6001600160a01b03161490506129e3565b612a2082612d52565b15612a44578160200151612a3383612d5b565b6001600160401b03161490506129e3565b612a4d82612cd0565b15612a6c578160200151612a6083612d82565b61ffff161490506129e3565b506000919050565b6000612a7f82612d1b565b15612aa857612a8d82612d23565b6001600160a01b0316836001600160a01b0316149050612959565b612ab182612d52565b15612b45576004546001600160a01b0316632746272984612ad185612d5b565b6040518363ffffffff1660e01b8152600401612aee929190613449565b60206040518083038186803b158015612b0657600080fd5b505afa158015612b1a573d6000803e3d6000fd5b505050506040513d601f19601f82011682018060405250810190612b3e9190612ffd565b9050612959565b612b4e82612cd0565b15612b8357600554604051631ec2232760e01b81526001600160a01b0390911690631ec2232790612aee90339060040161340a565bfe5b600054600160a01b900460ff16612bae5760405162461bcd60e51b815260040161031890613476565b6000805460ff60a01b191690557f5db9ee0a495bf2e6ff9c91a7834c1ba4fdd244a5e8aa4e537bd38aeae4b073aa612be4612da9565b604051612bf1919061340a565b60405180910390a1565b60009392505050565b600054600160a01b900460ff1615612c2e5760405162461bcd60e51b81526004016103189061372f565b6000805460ff60a01b1916600160a01b1790557f62e78cea01bee320cd4e420270b5ea74000d11b0c9f74754ebdbfc544b05a258612be4612da9565b60405163f2fde38b60e01b815283906001600160a01b0382169063f2fde38b90612c9890859060040161340a565b600060405180830381600087803b158015612cb257600080fd5b505af1158015612cc6573d6000803e3d6000fd5b5050505050505050565b600060025b60ff16826000015160ff16149050919050565b600554604051630e830b8760e41b81526000916001600160a01b03169063e830b870906129909085908590600401613449565b600080612cd5565b6000612d2e82612d1b565b612d4a5760405162461bcd60e51b815260040161031890613935565b506020015190565b60006001612cd5565b6000612d6682612d52565b612d4a5760405162461bcd60e51b815260040161031890613539565b6000612d8d82612cd0565b612d4a5760405162461bcd60e51b815260040161031890613587565b3390565b6040518060800160405280612dc0612ddb565b81526000602082018190526040820181905260609091015290565b604080518082019091526000808252602082015290565b604080516060810182526000808252602082018190529181019190915290565b600082601f830112612e22578081fd5b81356001600160401b03811115612e37578182fd5b6020612e468182840201613dba565b828152925080830184820160005b84811015612ec0578135870188603f820112612e6f57600080fd5b612e796040613dba565b8086830160005b6002811015612eaa57612e988d8a8435880101612edb565b84529288019290880190600101612e80565b5050855250509183019190830190600101612e54565b505050505092915050565b8051801515811461295957600080fd5b600082601f830112612eeb578081fd5b81356001600160401b03811115612f00578182fd5b612f13601f8201601f1916602001613dba565b9150808252836020828501011115612f2a57600080fd5b8060208401602084013760009082016020015292915050565b600060408284031215612f54578081fd5b612f5e6040613dba565b90508135612f6b81613e2f565b808252506020820135602082015292915050565b600060208284031215612f90578081fd5b8151612f9b81613de0565b9392505050565b60008060008060808587031215612fb7578283fd5b8435612fc281613de0565b93506020850135612fd281613de0565b92506040850135612fe281613de0565b91506060850135612ff281613de0565b939692955090935050565b60006020828403121561300e578081fd5b81518015158114612f9b578182fd5b6000806060838503121561302f578182fd5b6130398484612f43565b915060408301356001600160401b03811115613053578182fd5b61305f85828601612e12565b9150509250929050565b600081830360a081121561307b578182fd5b6130856080613dba565b6040821215613092578283fd5b61309c6040613dba565b915083516130a981613e2f565b8252602084810151908301528181526130c58560408601612ecb565b6020820152606084015191506130da82613e08565b8160408201526130ed8560808601612ecb565b6060820152949350505050565b60006040828403121561310b578081fd5b6131156040613dba565b61311f8484612ecb565b8152602083015161312f81613e08565b60208201529392505050565b60006060828403121561314c578081fd5b6131566060613dba565b825161316181613e1a565b81526131708460208501612ecb565b60208201526131828460408501612ecb565b60408201529392505050565b60006020828403121561319f578081fd5b8135612f9b81613df8565b6000602082840312156131bb578081fd5b8135612f9b81613e08565b6000602082840312156131d7578081fd5b8151612f9b81613e08565b6000602082840312156131f3578081fd5b8135612f9b81613e1a565b60006020828403121561320f578081fd5b8151612f9b81613e1a565b6000806040838503121561322c578182fd5b823561323781613e1a565b915060208301356001600160401b03811115613053578182fd5b60008060408385031215613263578182fd5b823561326e81613e1a565b915060208301356001600160401b03811115613288578182fd5b61305f85828601612edb565b600080606083850312156132a6578182fd5b82356132b181613e1a565b91506132c08460208501612f43565b90509250929050565b600080604083850312156132db578182fd5b82356132e681613e1a565b915060208301356132f681613df8565b809150509250929050565b60008060408385031215613313578182fd5b823561331e81613e1a565b915060208301356132f681613e08565b6000815180845260208085018081965082840281019150828601855b858110156133a057828403895281518460408101895b600281101561338b5787820383526133798285516133ad565b93890193928901929150600101613360565b509a87019a955050509084019060010161334a565b5091979650505050505050565b60008151808452815b818110156133d2576020818501810151868301820152016133b6565b818111156133e35782602083870101525b50601f01601f19169290920160200192915050565b805160ff168252602090810151910152565b6001600160a01b0391909116815260200190565b6001600160a01b03948516815292841660208401529083166040830152909116606082015260800190565b6001600160a01b039290921682526001600160401b0316602082015260400190565b901515815260200190565b60208082526014908201527314185d5cd8589b194e881b9bdd081c185d5cd95960621b604082015260600190565b60208082526026908201527f4163636573732064656e69656420756e6465722070726f7669646564206f776e60408201526506572736869760d41b606082015260800190565b6020808252602f908201527f54686520726561736f6e2073686f756c64206265206174206c6561737420322060408201526e63686172616374657273206c6f6e6760881b606082015260800190565b6020808252602e908201527f61734d656d6265722063616c6c6564206f6e206e6f6e2d6d656d62657220436860408201526d0616e6e656c4f776e6572736869760941b606082015260800190565b60208082526033908201527f617343757261746f7247726f75702063616c6c6564206f6e206e6f6e2d67726f60408201527207570204368616e6e656c4f776e65727368697606c1b606082015260800190565b6020808252601f908201527f4368616e6e656c20696e7374616e636573206c696d6974207265616368656400604082015260600190565b6020808252601190820152700496e76616c6964206f776e65727368697607c1b604082015260600190565b602080825260199082015278159a59195bc8185b1c9958591e4819195858dd1a5d985d1959603a1b604082015260600190565b602080825260149082015273566964656f20616c72656164792061637469766560601b604082015260600190565b60208082526024908201527f47726f75702773206368616e6e656c7320636f756e74206e6565647320746f206040820152630626520360e41b606082015260800190565b6020808252602e908201527f4f6e6c79206c6561642063616e20757064617465206f776e657273686970207460408201526d06f2043757261746f7247726f75760941b606082015260800190565b60208082526010908201526f14185d5cd8589b194e881c185d5cd95960821b604082015260600190565b60208082526019908201527810dd5c985d1bdc881a59081b9bdd081c9958dbd9db9a5e9959603a1b604082015260600190565b6020808252601b908201527a151a1a5cc818da185b9b995b081a5cc819195858dd1a5d985d1959602a1b604082015260600190565b60208082526017908201527611dc9bdd5c081a59081b9bdd081c9958dbd9db9a5e9959604a1b604082015260600190565b60208082526037908201527f546865206c696d69742063616e6e6f742065786365656420676c6f62616c20766040820152761a59195bdcd4195c90da185b9b995b13585e131a5b5a5d604a1b606082015260800190565b6020808252603b908201527f43616e6e6f742075706461746520766964656f206d657461646174612077686560408201527a6e20746865206368616e6e656c206973206e6f742061637469766560281b606082015260800190565b6020808252603a908201527f546869732066756e6374696f6e2063616e206f6e6c79206265206578656375746040820152796564207468726f7567682070726f706f73616c2073797374656d60301b606082015260800190565b6020808252601f908201527f43757261746f7220697320616c726561647920696e207468652067726f757000604082015260600190565b60208082526030908201527f6173416464726573732063616c6c6564206f6e206e6f6e2d616464726573732060408201526f04368616e6e656c4f776e6572736869760841b606082015260800190565b60208082526015908201527413dddb995c881858d8d95cdcc81c995c5d5a5c9959605a1b604082015260600190565b60208082526056908201527f766964656f735065724368616e6e656c4d61784c696d6974206d75737420626560408201527f2067726561746572207468616e206f7220657175616c20746f20766964656f7360608201527514195c90da185b9b995b111959985d5b1d131a5b5a5d60521b608082015260a00190565b6020808252602f908201527f43616e6e6f742061646420766964656f20746f2061206368616e6e656c20746860408201526e61742069736e27742061637469766560881b606082015260800190565b6020808252601b908201527a10da185b9b995b08185b1c9958591e4819195858dd1a5d985d1959602a1b604082015260600190565b6020808252601c908201527b416374697665206c656164206163636573732072657175697265642160201b604082015260600190565b6020808252601690820152754368616e6e656c20616c72656164792061637469766560501b604082015260600190565b6020808252600d908201526c1058d8d95cdcc819195b9a5959609a1b604082015260600190565b60208082526024908201527f47726f757027732063757261746f727320636f756e74206e6565647320746f206040820152630626520360e41b606082015260800190565b6020808252604b908201527f766964656f735065724368616e6e656c44656661756c744c696d69742063616e60408201527f6e6f74206578636565642063757272656e7420766964656f735065724368616e60608201526a1b995b13585e131a5b5a5d60aa1b608082015260a00190565b60208082526023908201527f43757261746f7220697320616c7265616479206e6f7420696e2074686520677260408201526206f75760ec1b606082015260800190565b6040810161295982846133f8565b61ffff91909116815260200190565b63ffffffff91909116815260200190565b6001600160401b0391909116815260200190565b6001600160401b0383168152604060208201819052600090613c9f9083018461332e565b949350505050565b6001600160401b039290921682521515602082015260400190565b6001600160401b0383168152604060208201819052600090613c9f908301846133ad565b6001600160401b038316815260608101612f9b60208301846133f8565b6001600160401b03841681526000613d1e60208301856133f8565b60806060830152613d32608083018461332e565b95945050505050565b6001600160401b0392909216825261ffff16602082015260400190565b6001600160401b0392909216825263ffffffff16602082015260400190565b6001600160401b03848116825283166020820152606060408201819052600090613d329083018461332e565b60ff92909216825261ffff16602082015260400190565b6040518181016001600160401b0381118282101715613dd857600080fd5b604052919050565b6001600160a01b0381168114613df557600080fd5b50565b61ffff81168114613df557600080fd5b63ffffffff81168114613df557600080fd5b6001600160401b0381168114613df557600080fd5b60ff81168114613df557600080fdfea2646970667358221220c5a70b25fd66d21cff818f02e8dcf2e14dbf7d28340cdbf94e9e0f399e51f0bc64736f6c634300060c0033",
  "immutableReferences": {},
  "source": "pragma solidity ^0.6.0;\npragma experimental ABIEncoderV2;\n\n// TODO: Use interfaces?\nimport \"./storage/ChannelStorage.sol\";\nimport \"./storage/CuratorGroupStorage.sol\";\nimport \"./storage/VideoStorage.sol\";\n\nimport \"./bridge/MembershipBridge.sol\";\nimport \"./bridge/ContentWorkingGroupBridge.sol\";\nimport \"./bridge/auth.sol\";\n\nimport \"../node_modules/@openzeppelin/contracts/utils/Pausable.sol\";\nimport \"../node_modules/@openzeppelin/contracts/access/Ownable.sol\";\n\nimport \"./types.sol\";\n\ncontract ContentDirectory is RuntimeManageable, Pausable {\n    // Storage contracts\n    ChannelStorage channelStorage;\n    VideoStorage videoStorage;\n    CuratorGroupStorage curatorGroupStorage;\n\t// \"Bridge\" contracts\n\tMembershipBridge membershipBridge;\n\tContentWorkingGroupBridge contentWorkingGroupBridge;\n\n  \t// Limits\n    // (they can me \"migrated\" just be setting a default value here, so no need to keep them in a separate storage)\n    uint64 channelInstancesLimit = 10;\n    uint32 videosPerChannelDefaultLimit = 5;\n    uint32 videosPerChannelMaxLimit = 1000;\n\n\tevent ChannelInstancesLimitUpdated(uint64 _newLimit);\n\tevent VideosPerChannelDefaultLimitUpdated(uint32 _newLimit);\n\tevent VideosPerChannelMaxLimitUpdated(uint32 _newLimit);\n\n\tevent Migrated(address _logic, address _videoStorage, address _channelStorage, address _curatorGroupStorage);\n\n\t// Channels\n\tevent ChannelCreated(uint64 _id, ChannelOwnership _ownership, string[2][] _metadata);\n\tevent ChannelMetadataUpdated(uint64 _id, string[2][] _metadata);\n\tevent ChannelOwnershipUpdated(uint64 _id, ChannelOwnership _ownership);\n\tevent ChannelVideoLimitUpdated(uint64 _id, uint64 _newLimit);\n\tevent ChannelDeactivated(uint64 _id, string _reason);\n\tevent ChannelReactivated(uint64 _id);\n\t// Curator Groups\n\tevent CuratorAddedToGroup(uint64 _curatorId, uint16 _groupId);\n\tevent CuratorRemovedFromGroup(uint64 _curatorId, uint16 _groupId);\n\tevent CuratorRemovedFromAllGroups(uint64 _curatorId);\n\t// Videos\n\tevent VideoAdded(uint64 _id, uint64 _channelId, string[2][] _metadata);\n\tevent VideoMetadataUpdated(uint64 _id, string[2][] _metadata);\n\tevent VideoRemoved(uint64 _id);\n\tevent VideoRemovedByCurator(uint64 _id, string _reason);\n\tevent VideoDeactivated(uint64 _id, string _reason);\n\tevent VideoReactivated(uint64 _id);\n\n\t// Common modifiers/helpers\n\tfunction _isActiveLead (address _address) internal view returns (bool) {\n\t\treturn contentWorkingGroupBridge.isActiveLead(_address);\n\t}\n\n\tfunction _isCurator (address _address) internal view returns (bool) {\n\t\t// FIXME: We either:\n\t\t// - need to provide curatorId\n\t\t// - have a separate address => curatorId[] map\n\t\t// - wait until the bridge alternative is implemented (with special address format)\n\t\treturn contentWorkingGroupBridge.isCurator(_address, 0);\n\t}\n\n\tmodifier onlyLead() {\n\t\trequire(_isActiveLead(msg.sender), \"Active lead access required!\");\n\t\t_;\n\t}\n\n\t// Limit setters that can be called via proposal module\n    function setChannelInstancesLimit (uint64 _newLimit) public onlyCouncil {\n\t\tchannelInstancesLimit = _newLimit;\n\t\temit ChannelInstancesLimitUpdated(_newLimit);\n\t}\n\n    function setVideosPerChannelDefaultLimit (uint32 _newLimit) public onlyCouncil {\n\t\trequire(\n\t\t\t_newLimit <= videosPerChannelMaxLimit,\n\t\t\t\"videosPerChannelDefaultLimit cannot exceed current videosPerChannelMaxLimit\"\n\t\t);\n\t\tvideosPerChannelDefaultLimit = _newLimit;\n\t\temit VideosPerChannelDefaultLimitUpdated(_newLimit);\n\t}\n\n    function setVideosPerChannelMaxLimit (uint32 _newLimit) public onlyCouncil {\n\t\trequire(\n\t\t\t_newLimit >= videosPerChannelDefaultLimit,\n\t\t\t\"videosPerChannelMaxLimit must be greater than or equal to videosPerChannelDefaultLimit\"\n\t\t);\n\t\tvideosPerChannelMaxLimit = _newLimit;\n\t\temit VideosPerChannelMaxLimitUpdated(_newLimit);\n\t}\n\n\t// Pause/unpause contract (through proposals)\n\tfunction pause() public onlyCouncil {\n\t\t_pause();\n\t}\n\n\tfunction unpause() public onlyCouncil {\n\t\t_unpause();\n\t}\n\n\tconstructor (\n\t\tRuntimeAddressProvider _provider,\n\t\tMembershipBridge _membershipBridge,\n\t\tContentWorkingGroupBridge _contentWorkingGroupBridge,\n\t\tChannelStorage _channelStorage,\n\t\tVideoStorage _videoStorage,\n\t\tCuratorGroupStorage _curatorGroupStorage\n\t) public RuntimeManageable(_provider) {\n\t\tmembershipBridge = _membershipBridge;\n\t\tcontentWorkingGroupBridge = _contentWorkingGroupBridge;\n\t\tchannelStorage = _channelStorage;\n\t\tvideoStorage = _videoStorage;\n\t\tcuratorGroupStorage = _curatorGroupStorage;\n\t}\n\n\t// Faciliates migration to new logic contract\n\tfunction migrate (\n\t\taddress _newLogic,\n        address _newVideoStorage,\n        address _newChannelStorage,\n        address _newCuratorGroupStorage\n\t) public onlyCouncil {\n\t\t_migrateStorage(address(videoStorage), _newVideoStorage, _newLogic);\n\t\t_migrateStorage(address(channelStorage), _newChannelStorage, _newLogic);\n\t\t_migrateStorage(address(curatorGroupStorage), _newCuratorGroupStorage, _newLogic);\n\t\temit Migrated(\n\t\t\t_newLogic,\n\t\t\t_newVideoStorage == address(0) ? address(videoStorage) : _newVideoStorage,\n\t\t\t_newChannelStorage == address(0) ? address(channelStorage) : _newChannelStorage,\n\t\t\t_newCuratorGroupStorage == address(0) ? address(curatorGroupStorage) : _newCuratorGroupStorage\n\t\t);\n\t\tselfdestruct(msg.sender);\n\t}\n\n\tfunction _migrateStorage (\n\t\taddress _oldStorageAddress,\n\t\taddress _newStorageAddress,\n\t\taddress _newLogicAddress\n\t) internal {\n\t\tif (_newStorageAddress != address(0)) {\n\t\t\t// TODO: Destroy old contract?\n\t\t\t// TODO: Set new contract owner?\n\t\t}\n\t\tOwnable oldStorage = Ownable(_oldStorageAddress);\n\t\toldStorage.transferOwnership(_newLogicAddress);\n\t}\n\n\t// CHANNELS\n\tusing ChannelOwnershipDecoder for ChannelOwnership;\n\n\tfunction _validateOwnership(ChannelOwnership memory _ownership) internal view returns (bool) {\n\t\trequire(_ownership.isValid(), \"Invalid ownership data\");\n\t\t// TODO: Check if member / group exists\n\t\t// (note that member check would be impossible without bridge contracts)\n\t}\n\n\tfunction _hasOwnerAccess(address _address, ChannelOwnership memory _ownership) internal view returns (bool) {\n\t\tif (_ownership.isAddress()) {\n\t\t\treturn _address == _ownership.asAddress();\n\t\t}\n\t\telse if (_ownership.isMember()) {\n\t\t\treturn membershipBridge.isMemberController(_address, _ownership.asMember());\n\t\t}\n\t\telse if (_ownership.isCuratorGroup()) {\n\t\t\t// Only lead can act as owner of group channel\n\t\t\treturn contentWorkingGroupBridge.isActiveLead(msg.sender);\n\t\t}\n\t\telse {\n\t\t\tassert(false); // Should never happen\n\t\t}\n\t}\n\n\tfunction _canCurate (address _address, ChannelOwnership memory _ownership) internal view returns (bool) {\n\t\treturn _ownership.isCuratorGroup() ? _isActiveLead(_address) : _isCurator(_address);\n\t}\n\n\tfunction _hasGroupAccessToOperation (\n\t\taddress _address,\n\t\tChannelOwnership memory _ownership,\n\t\tContentDirectoryOperation _operation\n\t) internal view returns(bool) {\n\t\t// TODO: Implement\n\t}\n\n\tfunction createChannel (\n\t\tChannelOwnership memory _ownership,\n\t\tstring[2][] memory _metadata\n\t) public whenNotPaused {\n\t\trequire(_ownership.isValid(), \"Invalid ownership\");\n\t\trequire(channelStorage.nextChannelId() <= channelInstancesLimit, \"Channel instances limit reached\");\n\t\trequire(_hasOwnerAccess(msg.sender, _ownership), \"Access denied under provided ownership\");\n\t\tuint64 channelId = channelStorage.addChannel(_ownership); // TODO: Some additional call-related checks?\n\t\temit ChannelCreated(channelId, _ownership, _metadata);\n\t}\n\n\tfunction updateChannelMetadata (\n\t\tuint64 _channelId,\n\t\tstring[2][] memory _metadata\n\t) public whenNotPaused {\n\t\tChannel memory channel = channelStorage.getExistingChannel(_channelId);\n\t\trequire(\n\t\t\t_hasOwnerAccess(msg.sender, channel.ownership) ||\n\t\t\t_canCurate(msg.sender, channel.ownership) ||\n\t\t\t_hasGroupAccessToOperation(msg.sender, channel.ownership, ContentDirectoryOperation.UpdateChannelMetadata),\n\t\t\t\"Access denied\"\n\t\t);\n\t\t// TODO: Shouldn't curator/owner be able update deactivated channel?\n\t\trequire(channel.isActive, \"This channel is deactivated\");\n\t\temit ChannelMetadataUpdated(_channelId, _metadata);\n\t}\n\n\tfunction updateChannelOwnership (\n\t\tuint64 _channelId,\n\t\tChannelOwnership memory _ownership\n\t) public whenNotPaused {\n\t\tChannel memory channel = channelStorage.getExistingChannel(_channelId);\n\t\trequire(_hasOwnerAccess(msg.sender, channel.ownership), \"Owner access required\");\n\t\trequire(_ownership.isValid(), \"Invalid ownership\");\n\t\trequire(!_ownership.isCuratorGroup() || _isActiveLead(msg.sender), \"Only lead can update ownership to CuratorGroup\");\n\t\tchannelStorage.updateOwnership(_channelId, _ownership); // TODO: Some additional call-related checks?\n\t\temit ChannelOwnershipUpdated(_channelId, _ownership);\n\t}\n\n\tfunction updateChannelVideoLimit (\n\t\tuint64 _channelId,\n\t\tuint32 _limit // Note that \"0\" here means \"use currently default limit\"\n\t) public whenNotPaused {\n\t\tChannel memory channel = channelStorage.getExistingChannel(_channelId);\n\t\t// FIXME: We either need curatorId or wait until the bridge alternative is implemented\n\t\trequire(_canCurate(msg.sender, channel.ownership), \"Access denied\");\n\t\trequire(_limit <= videosPerChannelMaxLimit, \"The limit cannot exceed global videosPerChannelMaxLimit\");\n\t\tchannelStorage.setChannelVideoLimit(_channelId, _limit); // TODO: Some additional call-related checks?\n\t\temit ChannelVideoLimitUpdated(_channelId, _limit);\n\t}\n\n    function deactivateChannel (\n\t\tuint64 _channelId,\n\t\tstring memory _reason\n\t) public whenNotPaused {\n\t\tChannel memory channel = channelStorage.getExistingChannel(_channelId);\n\t\trequire(_canCurate(msg.sender, channel.ownership), \"Access denied\");\n\t\trequire(channel.isActive, \"Channel already deactivated\");\n\t\trequire(bytes(_reason).length >= 2, \"The reason should be at least 2 characters long\");\n\t\tchannelStorage.updateStatus(_channelId, false);\n\t\temit ChannelDeactivated(_channelId, _reason);\n\t}\n\n    function activateChannel (\n\t\tuint64 _channelId\n\t) public whenNotPaused {\n\t\tChannel memory channel = channelStorage.getExistingChannel(_channelId);\n\t\t// FIXME: We either need curatorId or wait until the bridge alternative is implemented\n\t\trequire(_canCurate(msg.sender, channel.ownership), \"Access denied\");\n\t\trequire(!channel.isActive, \"Channel already active\");\n\t\tchannelStorage.updateStatus(_channelId, true);\n\t\temit ChannelReactivated(_channelId);\n\t}\n\n\t// CURATOR GROUPS\n\tfunction addCuratorToGroup(\n\t\tuint64 _curatorId,\n\t\tuint16 _groupId\n\t) public whenNotPaused onlyLead {\n\t\trequire(contentWorkingGroupBridge.curatorExists(_curatorId), \"Curator id not recognized\");\n\t\trequire(curatorGroupStorage.groupExists(_groupId), \"Group id not recognized\");\n\t\trequire(curatorGroupStorage.isCuratorInGroup(_curatorId, _groupId) == false, \"Curator is already in the group\");\n\t\tcuratorGroupStorage.addCuratorToGroup(_curatorId, _groupId);\n\t\temit CuratorAddedToGroup(_curatorId, _groupId);\n\t}\n\n\tfunction removeCuratorFromGroup(\n\t\tuint64 _curatorId,\n\t\tuint16 _groupId\n\t) public whenNotPaused onlyLead {\n\t\t// We don't validate if curator exists here, it's enough to check that isCuratorInGroup == true\n\t\trequire(curatorGroupStorage.groupExists(_groupId), \"Group id not recognized\");\n\t\trequire(curatorGroupStorage.isCuratorInGroup(_curatorId, _groupId) == true, \"Curator is already not in the group\");\n\t\tcuratorGroupStorage.removeCuratorFromGroup(_curatorId, _groupId);\n\t\temit CuratorRemovedFromGroup(_curatorId, _groupId);\n\t}\n\n\tfunction removeCuratorFromAllGroups(\n\t\tuint64 _curatorId\n\t) public whenNotPaused onlyLead {\n\t\trequire(contentWorkingGroupBridge.curatorExists(_curatorId), \"Curator id not recognized\");\n\t\tcuratorGroupStorage.removeCuratorFromAllGroups(_curatorId);\n\t\temit CuratorRemovedFromAllGroups(_curatorId);\n\t\t// TODO: Alternatively iterate here and execute \"removeCuratorFromGroup\" sending multiple events\n\t\t// The gas cost can get much higher, but perhaps that simplify handling events?\n\t}\n\n\tfunction removeCuratorGroup(\n\t\tuint16 _groupId\n\t) public whenNotPaused onlyLead {\n\t\tGroup memory group = curatorGroupStorage.getExistingGroup(_groupId);\n\t\trequire(group.curatorsCount == 0, \"Group's curators count needs to be 0\");\n\t\trequire(\n\t\t\tchannelStorage.channelCountByOwnership(uint8(ChannelOwnerType.CuratorGroup), _groupId) == 0,\n\t\t\t\"Group's channels count needs to be 0\"\n\t\t);\n\t\tcuratorGroupStorage.removeGroup(_groupId);\n\t}\n\n\t// VIDEOS\n\tfunction addVideo(\n\t\tuint64 _channelId,\n\t\tstring[2][] memory _metadata\n\t) public whenNotPaused {\n\t\tChannel memory channel = channelStorage.getExistingChannel(_channelId);\n\t\trequire(\n\t\t\t_hasOwnerAccess(msg.sender, channel.ownership) ||\n\t\t\t_hasGroupAccessToOperation(msg.sender, channel.ownership, ContentDirectoryOperation.AddVideo),\n\t\t\t\"Access denied\"\n\t\t);\n\t\trequire(channel.isActive, \"Cannot add video to a channel that isn't active\");\n\t\tuint32 channelVideoLimit = channel.videoLimit != 0 ? channel.videoLimit : videosPerChannelDefaultLimit;\n\t\trequire(videoStorage.videoCountByChannelId(_channelId) < channelVideoLimit);\n\t\tuint64 videoId = videoStorage.addVideo(_channelId);\n\t\temit VideoAdded(videoId, _channelId, _metadata);\n\t}\n\n\tfunction updateVideoMetadata(\n\t\tuint64 _videoId,\n\t\tstring[2][] memory _metadata\n\t) public whenNotPaused {\n\t\tVideo memory video = videoStorage.getExistingVideo(_videoId);\n\t\tChannel memory channel = channelStorage.getExistingChannel(video.channelId);\n\t\trequire(\n\t\t\t_hasOwnerAccess(msg.sender, channel.ownership) ||\n\t\t\t_hasGroupAccessToOperation(msg.sender, channel.ownership, ContentDirectoryOperation.UpdateVideoMetadata) ||\n\t\t\t_canCurate(msg.sender, channel.ownership),\n\t\t\t\"Access denied\"\n\t\t);\n\t\t// TODO: Curator can still update?\n\t\trequire(channel.isActive, \"Cannot update video metadata when the channel is not active\");\n\t\temit VideoMetadataUpdated(_videoId, _metadata);\n\t}\n\n\tfunction removeVideo(\n\t\tuint64 _videoId\n\t) public whenNotPaused {\n\t\tVideo memory video = videoStorage.getExistingVideo(_videoId);\n\t\tChannel memory channel = channelStorage.getExistingChannel(video.channelId);\n\t\trequire(\n\t\t\t_hasOwnerAccess(msg.sender, channel.ownership) ||\n\t\t\t_hasGroupAccessToOperation(msg.sender, channel.ownership, ContentDirectoryOperation.RemoveVideo),\n\t\t\t\"Access denied\"\n\t\t);\n\t\tvideoStorage.removeVideo(_videoId);\n\t\temit VideoRemoved(_videoId);\n\t}\n\n\tfunction removeVideoAsCurator(\n\t\tuint64 _videoId,\n\t\tstring memory _reason\n\t) public whenNotPaused {\n\t\tVideo memory video = videoStorage.getExistingVideo(_videoId);\n\t\tChannel memory channel = channelStorage.getExistingChannel(video.channelId);\n\t\trequire(_canCurate(msg.sender, channel.ownership), \"Access denied\");\n\t\trequire(bytes(_reason).length > 2, \"The reason should be at least 2 characters long\");\n\t\tvideoStorage.removeVideo(_videoId);\n\t\temit VideoRemovedByCurator(_videoId, _reason);\n\t}\n\n    function deactivateVideo (\n\t\tuint64 _videoId,\n\t\tstring memory _reason\n\t) public whenNotPaused {\n\t\tVideo memory video = videoStorage.getExistingVideo(_videoId);\n\t\tChannel memory channel = channelStorage.getExistingChannel(video.channelId);\n\t\trequire(_canCurate(msg.sender, channel.ownership), \"Access denied\");\n\t\trequire(video.isActive, \"Video already deactivated\");\n\t\trequire(bytes(_reason).length >= 2, \"The reason should be at least 2 characters long\");\n\t\tvideoStorage.updateStatus(_videoId, false);\n\t\temit VideoDeactivated(_videoId, _reason);\n\t}\n\n    function activateVideo (\n\t\tuint64 _videoId\n\t) public whenNotPaused {\n\t\tVideo memory video = videoStorage.getExistingVideo(_videoId);\n\t\tChannel memory channel = channelStorage.getExistingChannel(video.channelId);\n\t\trequire(_canCurate(msg.sender, channel.ownership), \"Access denied\");\n\t\trequire(!video.isActive, \"Video already active\");\n\t\tvideoStorage.updateStatus(_videoId, true);\n\t\temit VideoReactivated(_videoId);\n\t}\n}\n",
  "sourcePath": "/home/leszek/projects/joystream/joystream/smart-contracts/contracts/ContentDirectory.sol",
  "compiler": {
    "name": "solc",
    "version": "0.6.12+commit.27d51765.Emscripten.clang"
  },
  "schemaVersion": "3.3.2",
  "updatedAt": "2020-11-17T12:09:37.515Z",
  "devdoc": {
    "kind": "dev",
    "methods": {
      "paused()": {
        "details": "Returns true if the contract is paused, and false otherwise."
      }
    },
    "version": 1
  },
  "userdoc": {
    "kind": "user",
    "methods": {},
    "version": 1
  }
}