{
  "contractName": "CuratorGroupStorage",
  "abi": [
    {
      "anonymous": false,
      "inputs": [
        {
          "indexed": true,
          "internalType": "address",
          "name": "previousOwner",
          "type": "address"
        },
        {
          "indexed": true,
          "internalType": "address",
          "name": "newOwner",
          "type": "address"
        }
      ],
      "name": "OwnershipTransferred",
      "type": "event"
    },
    {
      "inputs": [
        {
          "internalType": "uint64",
          "name": "",
          "type": "uint64"
        },
        {
          "internalType": "uint16",
          "name": "",
          "type": "uint16"
        }
      ],
      "name": "isCuratorInGroup",
      "outputs": [
        {
          "internalType": "bool",
          "name": "",
          "type": "bool"
        }
      ],
      "stateMutability": "view",
      "type": "function"
    },
    {
      "inputs": [],
      "name": "nextGroupId",
      "outputs": [
        {
          "internalType": "uint16",
          "name": "",
          "type": "uint16"
        }
      ],
      "stateMutability": "view",
      "type": "function"
    },
    {
      "inputs": [],
      "name": "owner",
      "outputs": [
        {
          "internalType": "address",
          "name": "",
          "type": "address"
        }
      ],
      "stateMutability": "view",
      "type": "function"
    },
    {
      "inputs": [
        {
          "internalType": "uint16",
          "name": "",
          "type": "uint16"
        },
        {
          "internalType": "uint8",
          "name": "",
          "type": "uint8"
        }
      ],
      "name": "permissionsByGroupId",
      "outputs": [
        {
          "internalType": "bool",
          "name": "",
          "type": "bool"
        }
      ],
      "stateMutability": "view",
      "type": "function"
    },
    {
      "inputs": [],
      "name": "renounceOwnership",
      "outputs": [],
      "stateMutability": "nonpayable",
      "type": "function"
    },
    {
      "inputs": [
        {
          "internalType": "address",
          "name": "newOwner",
          "type": "address"
        }
      ],
      "name": "transferOwnership",
      "outputs": [],
      "stateMutability": "nonpayable",
      "type": "function"
    },
    {
      "inputs": [
        {
          "internalType": "bool[]",
          "name": "_permissions",
          "type": "bool[]"
        }
      ],
      "name": "addGroup",
      "outputs": [],
      "stateMutability": "nonpayable",
      "type": "function"
    },
    {
      "inputs": [
        {
          "internalType": "uint16",
          "name": "_groupId",
          "type": "uint16"
        }
      ],
      "name": "groupExists",
      "outputs": [
        {
          "internalType": "bool",
          "name": "",
          "type": "bool"
        }
      ],
      "stateMutability": "view",
      "type": "function"
    },
    {
      "inputs": [
        {
          "internalType": "uint16",
          "name": "_groupId",
          "type": "uint16"
        }
      ],
      "name": "getExistingGroup",
      "outputs": [
        {
          "components": [
            {
              "internalType": "bool",
              "name": "isExisting",
              "type": "bool"
            },
            {
              "internalType": "uint32",
              "name": "curatorsCount",
              "type": "uint32"
            }
          ],
          "internalType": "struct Group",
          "name": "",
          "type": "tuple"
        }
      ],
      "stateMutability": "view",
      "type": "function"
    },
    {
      "inputs": [
        {
          "internalType": "uint64",
          "name": "_curatorId",
          "type": "uint64"
        },
        {
          "internalType": "uint16",
          "name": "_groupId",
          "type": "uint16"
        }
      ],
      "name": "addCuratorToGroup",
      "outputs": [],
      "stateMutability": "nonpayable",
      "type": "function"
    },
    {
      "inputs": [
        {
          "internalType": "uint64",
          "name": "_curatorId",
          "type": "uint64"
        },
        {
          "internalType": "uint16",
          "name": "_groupId",
          "type": "uint16"
        }
      ],
      "name": "removeCuratorFromGroup",
      "outputs": [],
      "stateMutability": "nonpayable",
      "type": "function"
    },
    {
      "inputs": [
        {
          "internalType": "uint64",
          "name": "_curatorId",
          "type": "uint64"
        }
      ],
      "name": "removeCuratorFromAllGroups",
      "outputs": [],
      "stateMutability": "nonpayable",
      "type": "function"
    },
    {
      "inputs": [
        {
          "internalType": "uint16",
          "name": "_groupId",
          "type": "uint16"
        }
      ],
      "name": "removeGroup",
      "outputs": [],
      "stateMutability": "nonpayable",
      "type": "function"
    }
  ],
  "bytecode": "0x60806040526004805461ffff1916600117905534801561001e57600080fd5b506000610029610078565b600080546001600160a01b0319166001600160a01b0383169081178255604051929350917f8be0079c531659141344cd1fd0a4f28419497f9722a3daafe3b4186f6b6457e0908290a35061007c565b3390565b610c848061008b6000396000f3fe608060405234801561001057600080fd5b50600436106100af5760003560e01c80631d191c33146100b45780633cbdb702146100c9578063400c196c146100dc5780635eda7a7614610105578063715018a61461011a5780637f8c9ea2146101225780638da5cb5b1461014257806396cbd61b14610157578063a51a0a861461016a578063be16b3531461017d578063d8b457fc14610190578063de6eb66e146101a3578063f2fde38b146101b6575b600080fd5b6100c76100c2366004610876565b6101c9565b005b6100c76100d736600461093c565b6102c9565b6100ef6100ea36600461093c565b61031e565b6040516100fc9190610ba4565b60405180910390f35b61010d6103ef565b6040516100fc9190610bc3565b6100c76103f9565b610135610130366004610958565b610466565b6040516100fc91906109f8565b61014a610486565b6040516100fc91906109e4565b6100c761016536600461099b565b610495565b6101356101783660046109b7565b610532565b6100c761018b3660046109b7565b610552565b6100c761019e3660046109b7565b6105dc565b6101356101b136600461093c565b610663565b6100c76101c436600461084f565b61067c565b6101d1610720565b6000546001600160a01b039081169116146102075760405162461bcd60e51b81526004016101fe90610b6f565b60405180910390fd5b60ff815111156102295760405162461bcd60e51b81526004016101fe90610a56565b60045461ffff166000818152600360205260408120805460ff19166001178155905b83518160ff1610156102b057838160ff168151811061026657fe5b60209081029190910181015161ffff8516600090815260028352604080822060ff861680845294529020805460ff19169115159190911790556102aa906001610724565b5061024b565b506004546102c39061ffff166001610758565b50505050565b6102d1610720565b6000546001600160a01b039081169116146102fe5760405162461bcd60e51b81526004016101fe90610b6f565b61ffff166000908152600360205260409020805464ffffffffff19169055565b61032661082d565b604051636f375b3760e11b8152309063de6eb66e90610349908590600401610bc3565b60206040518083038186803b15801561036157600080fd5b505afa158015610375573d6000803e3d6000fd5b505050506040513d601f19601f820116820180604052508101906103999190610920565b6103b55760405162461bcd60e51b81526004016101fe90610b2e565b5061ffff1660009081526003602090815260409182902082518084019093525460ff811615158352610100900463ffffffff169082015290565b60045461ffff1681565b610401610720565b6000546001600160a01b0390811691161461042e5760405162461bcd60e51b81526004016101fe90610b6f565b600080546040516001600160a01b0390911690600080516020610c2f833981519152908390a3600080546001600160a01b0319169055565b600260209081526000928352604080842090915290825290205460ff1681565b6000546001600160a01b031690565b61049d610720565b6000546001600160a01b039081169116146104ca5760405162461bcd60e51b81526004016101fe90610b6f565b60015b60045461ffff908116908216101561052e576001600160401b038216600090815260016020908152604080832061ffff8516845290915290205460ff1615610519576105198282610552565b61052861ffff82166001610758565b506104cd565b5050565b600160209081526000928352604080842090915290825290205460ff1681565b61055a610720565b6000546001600160a01b039081169116146105875760405162461bcd60e51b81526004016101fe90610b6f565b6001600160401b038216600090815260016020818152604080842061ffff861685528252808420805460ff191690556003909152909120546105d79163ffffffff61010090920482169161078416565b505050565b6105e4610720565b6000546001600160a01b039081169116146106115760405162461bcd60e51b81526004016101fe90610b6f565b6001600160401b038216600090815260016020818152604080842061ffff861685528252808420805460ff1916841790556003909152909120546105d79163ffffffff6101009092048216916107c616565b61ffff1660009081526003602052604090205460ff1690565b610684610720565b6000546001600160a01b039081169116146106b15760405162461bcd60e51b81526004016101fe90610b6f565b6001600160a01b0381166106d75760405162461bcd60e51b81526004016101fe90610ab3565b600080546040516001600160a01b0380851693921691600080516020610c2f83398151915291a3600080546001600160a01b0319166001600160a01b0392909216919091179055565b3390565b600082820160ff808516908216101561074f5760405162461bcd60e51b81526004016101fe90610af9565b90505b92915050565b600082820161ffff808516908216101561074f5760405162461bcd60e51b81526004016101fe90610af9565b600061074f83836040518060400160405280601e81526020017f536166654d6174683a207375627472616374696f6e206f766572666c6f7700008152506107f4565b600082820163ffffffff808516908216101561074f5760405162461bcd60e51b81526004016101fe90610af9565b60008363ffffffff168363ffffffff16111582906108255760405162461bcd60e51b81526004016101fe9190610a03565b505050900390565b604080518082019091526000808252602082015290565b803561075281610bf8565b600060208284031215610860578081fd5b81356001600160a01b038116811461074f578182fd5b60006020808385031215610888578182fd5b82356001600160401b038082111561089e578384fd5b818501915085601f8301126108b1578384fd5b8135818111156108bf578485fd5b83810291506108cf848301610bd2565b8181528481019084860184860187018a10156108e9578788fd5b8795505b83861015610913576108ff8a82610844565b8352600195909501949186019186016108ed565b5098975050505050505050565b600060208284031215610931578081fd5b815161074f81610bf8565b60006020828403121561094d578081fd5b813561074f81610c09565b6000806040838503121561096a578081fd5b823561ffff8116811461097b578182fd5b9150602083013560ff81168114610990578182fd5b809150509250929050565b6000602082840312156109ac578081fd5b813561074f81610c19565b600080604083850312156109c9578182fd5b82356109d481610c19565b9150602083013561099081610c09565b6001600160a01b0391909116815260200190565b901515815260200190565b6000602080835283518082850152825b81811015610a2f57858101830151858201604001528201610a13565b81811115610a405783604083870101525b50601f01601f1916929092016040019392505050565b6020808252603d908201527f5065726d697373696f6e20666c61677320696e7075742061727261792069732060408201527f746f6f206269672e2045787065637465642073697a65203c3d20323535000000606082015260800190565b60208082526026908201527f4f776e61626c653a206e6577206f776e657220697320746865207a65726f206160408201526564647265737360d01b606082015260800190565b6020808252601b908201527a536166654d6174683a206164646974696f6e206f766572666c6f7760281b604082015260600190565b60208082526021908201527f547279696e6720746f2061636365737320756e6578697374696e672067726f756040820152600760fc1b606082015260800190565b6020808252818101527f4f776e61626c653a2063616c6c6572206973206e6f7420746865206f776e6572604082015260600190565b81511515815260209182015163ffffffff169181019190915260400190565b61ffff91909116815260200190565b6040518181016001600160401b0381118282101715610bf057600080fd5b604052919050565b8015158114610c0657600080fd5b50565b61ffff81168114610c0657600080fd5b6001600160401b0381168114610c0657600080fdfe8be0079c531659141344cd1fd0a4f28419497f9722a3daafe3b4186f6b6457e0a2646970667358221220f41d0717f0059165404bdacb81c965178377fe168e4dd5b3646273e4039a5a9a64736f6c634300060c0033",
  "immutableReferences": {},
  "source": "pragma experimental ABIEncoderV2;\n\nimport \"../../node_modules/@openzeppelin/contracts/access/Ownable.sol\";\nimport \"../../node_modules/@openzeppelin/contracts/utils/EnumerableMap.sol\";\n\nimport \"../lib/SafeMath8.sol\";\nimport \"../lib/SafeMath16.sol\";\nimport \"../lib/SafeMath32.sol\";\n\n// Any change to this struct requires CuratorGroupStorage migration\nstruct Group {\n\tbool isExisting;\n\tuint32 curatorsCount;\n}\n\ncontract CuratorGroupStorage is Ownable {\n\tusing SafeMath8 for uint8;\n\tusing SafeMath16 for uint16;\n\tusing SafeMath32 for uint32;\n\n    // curatorId => groupId => boolean double-map representing curator membership in group\n    mapping (uint64 => mapping (uint16 => bool)) public isCuratorInGroup;\n\t// A generic storage representation of group permissions' flags\n\t// Those flags can have different meanings depending on current logic implementation\n\tmapping (uint16 => mapping (uint8 => bool)) public permissionsByGroupId;\n    mapping (uint16 => Group) private groupById;\n\n    uint16 public nextGroupId = 1;\n\n    function addGroup (bool[] memory _permissions) public onlyOwner {\n\t\t// Prevent possible uint8 overflow infinite loop, TODO: Could just use SafeMath!\n\t\trequire(\n\t\t\t_permissions.length <= 255,\n\t\t\t\"Permission flags input array is too big. Expected size <= 255\"\n\t\t);\n\t\tuint16 groupId = nextGroupId;\n\t\t// Get storage ref\n\t\tGroup storage newGroup = groupById[groupId];\n\t\t// Populate the struct\n\t\tnewGroup.isExisting = true;\n\t\tfor (uint8 i = 0; i < _permissions.length; i.add(1)) {\n\t\t\tpermissionsByGroupId[groupId][i] = _permissions[i];\n\t\t}\n\t\tnextGroupId.add(1);\n\t}\n\n\tfunction groupExists (uint16 _groupId) public view returns (bool) {\n\t\treturn groupById[_groupId].isExisting;\n\t}\n\n\tfunction getExistingGroup (uint16 _groupId) public view returns (Group memory) {\n\t\trequire(\n\t\t\tthis.groupExists(_groupId),\n\t\t\t\"Trying to access unexisting group\"\n\t\t);\n\t\treturn groupById[_groupId];\n\t}\n\n    function addCuratorToGroup (uint64 _curatorId, uint16 _groupId) public onlyOwner {\n\t\tisCuratorInGroup[_curatorId][_groupId] = true;\n\t\tgroupById[_groupId].curatorsCount.add(1);\n\t}\n\n    function removeCuratorFromGroup (uint64 _curatorId, uint16 _groupId) public onlyOwner {\n\t\tisCuratorInGroup[_curatorId][_groupId] = false;\n\t\tgroupById[_groupId].curatorsCount.sub(1); // Safemath?\n\t}\n\n\tfunction removeCuratorFromAllGroups(uint64 _curatorId) public onlyOwner {\n\t\tfor (uint16 i = 1; i < nextGroupId; i.add(1)) {\n\t\t\tif (isCuratorInGroup[_curatorId][i]) {\n\t\t\t\tremoveCuratorFromGroup(_curatorId, i);\n\t\t\t}\n\t\t}\n\t}\n\n    // FIXME: Is there a value in removing a group that has no curators and no channels anymore?\n    function removeGroup (uint16 _groupId) public onlyOwner {\n\t\tdelete groupById[_groupId]; // Will set isExisting to false\n\t}\n}\n",
  "sourcePath": "/home/leszek/projects/joystream/joystream/smart-contracts/contracts/storage/CuratorGroupStorage.sol",
  "compiler": {
    "name": "solc",
    "version": "0.6.12+commit.27d51765.Emscripten.clang"
  },
  "schemaVersion": "3.3.2",
  "updatedAt": "2020-11-17T12:09:37.584Z",
  "devdoc": {
    "kind": "dev",
    "methods": {
      "owner()": {
        "details": "Returns the address of the current owner."
      },
      "renounceOwnership()": {
        "details": "Leaves the contract without owner. It will not be possible to call `onlyOwner` functions anymore. Can only be called by the current owner. NOTE: Renouncing ownership will leave the contract without an owner, thereby removing any functionality that is only available to the owner."
      },
      "transferOwnership(address)": {
        "details": "Transfers ownership of the contract to a new account (`newOwner`). Can only be called by the current owner."
      }
    },
    "version": 1
  },
  "userdoc": {
    "kind": "user",
    "methods": {},
    "version": 1
  }
}