{
  "contractName": "MembershipBridge",
  "abi": [
    {
      "inputs": [
        {
          "internalType": "contract RuntimeAddressProvider",
          "name": "_provider",
          "type": "address"
        }
      ],
      "stateMutability": "nonpayable",
      "type": "constructor"
    },
    {
      "inputs": [],
      "name": "runtimeAddressProvider",
      "outputs": [
        {
          "internalType": "contract RuntimeAddressProvider",
          "name": "",
          "type": "address"
        }
      ],
      "stateMutability": "view",
      "type": "function"
    },
    {
      "inputs": [
        {
          "internalType": "uint64",
          "name": "_memberId",
          "type": "uint64"
        },
        {
          "internalType": "address",
          "name": "_address",
          "type": "address"
        }
      ],
      "name": "setMemberAddress",
      "outputs": [],
      "stateMutability": "nonpayable",
      "type": "function"
    },
    {
      "inputs": [
        {
          "internalType": "address",
          "name": "_address",
          "type": "address"
        },
        {
          "internalType": "uint64",
          "name": "_memberId",
          "type": "uint64"
        }
      ],
      "name": "isMemberController",
      "outputs": [
        {
          "internalType": "bool",
          "name": "",
          "type": "bool"
        }
      ],
      "stateMutability": "view",
      "type": "function"
    },
    {
      "inputs": [
        {
          "internalType": "uint64",
          "name": "_memberId",
          "type": "uint64"
        }
      ],
      "name": "memberExists",
      "outputs": [
        {
          "internalType": "bool",
          "name": "",
          "type": "bool"
        }
      ],
      "stateMutability": "view",
      "type": "function"
    }
  ],
  "bytecode": "0x608060405234801561001057600080fd5b5060405161033d38038061033d8339818101604052602081101561003357600080fd5b5051600080546001600160a01b039092166001600160a01b03199092169190911790556102d8806100656000396000f3fe608060405234801561001057600080fd5b506004361061004c5760003560e01c80632746272914610051578063284e2be51461009a5780632ca880d4146100d15780637b1abc66146100f5575b600080fd5b6100866004803603604081101561006757600080fd5b5080356001600160a01b031690602001356001600160401b031661011b565b604080519115158252519081900360200190f35b6100cf600480360360408110156100b057600080fd5b5080356001600160401b031690602001356001600160a01b0316610144565b005b6100d961023b565b604080516001600160a01b039092168252519081900360200190f35b6100866004803603602081101561010b57600080fd5b50356001600160401b031661024a565b6001600160401b03166000908152600160205260409020546001600160a01b0391821691161490565b60008054906101000a90046001600160a01b03166001600160a01b031663ec30338c6040518163ffffffff1660e01b815260040160206040518083038186803b15801561019057600080fd5b505afa1580156101a4573d6000803e3d6000fd5b505050506040513d60208110156101ba57600080fd5b50516001600160a01b031633146102025760405162461bcd60e51b81526004018080602001828103825260338152602001806102706033913960400191505060405180910390fd5b6001600160401b0391909116600090815260016020526040902080546001600160a01b0319166001600160a01b03909216919091179055565b6000546001600160a01b031681565b6001600160401b03166000908152600160205260409020546001600160a01b0316159056fe546869732066756e6374696f6e2063616e206f6e6c792062652065786563757465642066726f6d207468652072756e74696d65a2646970667358221220325086b06f8d31fa4aaaa1fffc086551e0d75336ad3adb7bf7b6159d98afba5b64736f6c634300060c0033",
  "immutableReferences": {},
  "source": "pragma solidity ^0.6.0;\n\nimport \"./auth.sol\";\n\ncontract MembershipBridge is RuntimeManageable {\n    mapping (uint64 => address) private controllerAddressByMemberId;\n\n\tconstructor (RuntimeAddressProvider _provider) public RuntimeManageable(_provider) {}\n\n    function setMemberAddress(uint64 _memberId, address _address) public onlyRuntime {\n        controllerAddressByMemberId[_memberId] = _address;\n    }\n\n\tfunction isMemberController(address _address, uint64 _memberId) public view returns (bool) {\n\t\treturn controllerAddressByMemberId[_memberId] == _address;\n\t}\n\n\tfunction memberExists(uint64 _memberId) public view returns (bool) {\n\t\treturn controllerAddressByMemberId[_memberId] == address(0);\n\t}\n}\n",
  "sourcePath": "/home/leszek/projects/joystream/joystream/smart-contracts/contracts/bridge/MembershipBridge.sol",
  "compiler": {
    "name": "solc",
    "version": "0.6.12+commit.27d51765.Emscripten.clang"
  },
  "schemaVersion": "3.3.2",
  "updatedAt": "2020-11-17T12:09:37.542Z",
  "devdoc": {
    "kind": "dev",
    "methods": {},
    "version": 1
  },
  "userdoc": {
    "kind": "user",
    "methods": {},
    "version": 1
  }
}