{
  "contractName": "VideoStorage",
  "abi": [
    {
      "anonymous": false,
      "inputs": [
        {
          "indexed": true,
          "internalType": "address",
          "name": "previousOwner",
          "type": "address"
        },
        {
          "indexed": true,
          "internalType": "address",
          "name": "newOwner",
          "type": "address"
        }
      ],
      "name": "OwnershipTransferred",
      "type": "event"
    },
    {
      "inputs": [],
      "name": "owner",
      "outputs": [
        {
          "internalType": "address",
          "name": "",
          "type": "address"
        }
      ],
      "stateMutability": "view",
      "type": "function"
    },
    {
      "inputs": [],
      "name": "renounceOwnership",
      "outputs": [],
      "stateMutability": "nonpayable",
      "type": "function"
    },
    {
      "inputs": [
        {
          "internalType": "address",
          "name": "newOwner",
          "type": "address"
        }
      ],
      "name": "transferOwnership",
      "outputs": [],
      "stateMutability": "nonpayable",
      "type": "function"
    },
    {
      "inputs": [
        {
          "internalType": "uint64",
          "name": "",
          "type": "uint64"
        }
      ],
      "name": "videoCountByChannelId",
      "outputs": [
        {
          "internalType": "uint64",
          "name": "",
          "type": "uint64"
        }
      ],
      "stateMutability": "view",
      "type": "function"
    },
    {
      "inputs": [
        {
          "internalType": "uint64",
          "name": "_channelId",
          "type": "uint64"
        }
      ],
      "name": "addVideo",
      "outputs": [
        {
          "internalType": "uint64",
          "name": "",
          "type": "uint64"
        }
      ],
      "stateMutability": "nonpayable",
      "type": "function"
    },
    {
      "inputs": [
        {
          "internalType": "uint64",
          "name": "_videoId",
          "type": "uint64"
        }
      ],
      "name": "getExistingVideo",
      "outputs": [
        {
          "components": [
            {
              "internalType": "uint64",
              "name": "channelId",
              "type": "uint64"
            },
            {
              "internalType": "bool",
              "name": "isActive",
              "type": "bool"
            },
            {
              "internalType": "bool",
              "name": "isExisting",
              "type": "bool"
            }
          ],
          "internalType": "struct Video",
          "name": "",
          "type": "tuple"
        }
      ],
      "stateMutability": "view",
      "type": "function"
    },
    {
      "inputs": [
        {
          "internalType": "uint64",
          "name": "_videoId",
          "type": "uint64"
        },
        {
          "internalType": "bool",
          "name": "_isActive",
          "type": "bool"
        }
      ],
      "name": "updateStatus",
      "outputs": [],
      "stateMutability": "nonpayable",
      "type": "function"
    },
    {
      "inputs": [
        {
          "internalType": "uint64",
          "name": "_videoId",
          "type": "uint64"
        }
      ],
      "name": "removeVideo",
      "outputs": [],
      "stateMutability": "nonpayable",
      "type": "function"
    }
  ],
  "bytecode": "0x6080604052600380546001600160401b031916600117905534801561002357600080fd5b50600061002e61007d565b600080546001600160a01b0319166001600160a01b0383169081178255604051929350917f8be0079c531659141344cd1fd0a4f28419497f9722a3daafe3b4186f6b6457e0908290a350610081565b3390565b61081b806100906000396000f3fe608060405234801561001057600080fd5b50600436106100785760003560e01c8063010529821461007d578063715018a6146100a6578063750a1063146100b05780638da5cb5b146100d05780639a055bbf146100e55780639d8d51f8146100f8578063b5b9dc911461010b578063f2fde38b1461011e575b600080fd5b61009061008b3660046105bd565b610131565b60405161009d91906107b1565b60405180910390f35b6100ae61014c565b005b6100c36100be3660046105bd565b6101c2565b60405161009d9190610783565b6100d8610246565b60405161009d919061062b565b6100ae6100f33660046105bd565b610255565b6100906101063660046105bd565b6102e7565b6100ae6101193660046105e4565b6103ab565b6100ae61012c366004610596565b610415565b6002602052600090815260409020546001600160401b031681565b6101546104b9565b6000546001600160a01b0390811691161461018a5760405162461bcd60e51b81526004016101819061070d565b60405180910390fd5b600080546040516001600160a01b03909116906000805160206107c6833981519152908390a3600080546001600160a01b0319169055565b6101ca610576565b6101d2610576565b506001600160401b0380831660009081526001602090815260409182902082516060810184529054938416815260ff600160401b85048116151592820192909252600160481b9093041615159082018190526102405760405162461bcd60e51b815260040161018190610742565b92915050565b6000546001600160a01b031690565b61025d6104b9565b6000546001600160a01b0390811691161461028a5760405162461bcd60e51b81526004016101819061070d565b6001600160401b03808216600090815260016020818152604080842054851684526002909152909120546102bf9216906104bd565b506001600160401b0316600090815260016020526040902080546001600160501b0319169055565b60006102f16104b9565b6000546001600160a01b0390811691161461031e5760405162461bcd60e51b81526004016101819061070d565b6003546001600160401b0390811660008181526001602081815260408084208054600160401b600160481b60ff60481b199092169190911760ff60401b1916176001600160401b031916898816908117825585526002909252909220549293919261038a921690610506565b506003546103a2906001600160401b03166001610506565b50909392505050565b6103b36104b9565b6000546001600160a01b039081169116146103e05760405162461bcd60e51b81526004016101819061070d565b6001600160401b0390911660009081526001602052604090208054911515600160401b0260ff60401b19909216919091179055565b61041d6104b9565b6000546001600160a01b0390811691161461044a5760405162461bcd60e51b81526004016101819061070d565b6001600160a01b0381166104705760405162461bcd60e51b815260040161018190610692565b600080546040516001600160a01b03808516939216916000805160206107c683398151915291a3600080546001600160a01b0319166001600160a01b0392909216919091179055565b3390565b60006104ff83836040518060400160405280601e81526020017f536166654d6174683a207375627472616374696f6e206f766572666c6f770000815250610537565b9392505050565b60008282016001600160401b0380851690821610156104ff5760405162461bcd60e51b8152600401610181906106d8565b6000836001600160401b0316836001600160401b03161115829061056e5760405162461bcd60e51b8152600401610181919061063f565b505050900390565b604080516060810182526000808252602082018190529181019190915290565b6000602082840312156105a7578081fd5b81356001600160a01b03811681146104ff578182fd5b6000602082840312156105ce578081fd5b81356001600160401b03811681146104ff578182fd5b600080604083850312156105f6578081fd5b82356001600160401b038116811461060c578182fd5b915060208301358015158114610620578182fd5b809150509250929050565b6001600160a01b0391909116815260200190565b6000602080835283518082850152825b8181101561066b5785810183015185820160400152820161064f565b8181111561067c5783604083870101525b50601f01601f1916929092016040019392505050565b60208082526026908201527f4f776e61626c653a206e6577206f776e657220697320746865207a65726f206160408201526564647265737360d01b606082015260800190565b6020808252601b908201527a536166654d6174683a206164646974696f6e206f766572666c6f7760281b604082015260600190565b6020808252818101527f4f776e61626c653a2063616c6c6572206973206e6f7420746865206f776e6572604082015260600190565b60208082526021908201527f547279696e6720746f2061636365737320756e6578697374696e6720766964656040820152606f60f81b606082015260800190565b81516001600160401b0316815260208083015115159082015260409182015115159181019190915260600190565b6001600160401b039190911681526020019056fe8be0079c531659141344cd1fd0a4f28419497f9722a3daafe3b4186f6b6457e0a2646970667358221220bfe2b6e1714a633139d3e0680422359b56bdcc045055314ce8472504e979bb0d64736f6c634300060c0033",
  "immutableReferences": {},
  "source": "pragma solidity ^0.6.0;\npragma experimental ABIEncoderV2;\n\nimport \"../../node_modules/@openzeppelin/contracts/access/Ownable.sol\";\nimport \"../lib/SafeMath64.sol\";\n\n// Any change to this struct requires VideoStorage migration\nstruct Video {\n    uint64 channelId;\n    bool isActive;\n    bool isExisting;\n}\n\ncontract VideoStorage is Ownable {\n\tusing SafeMath64 for uint64;\n\n    mapping (uint64 => Video) private videoById;\n\t// TODO: Use logic contract to update this in ChannelStorage?\n    mapping (uint64 => uint64) public videoCountByChannelId; // TODO: Either u32 or update this in logic for consistency\n    uint64 nextVideoId = 1;\n\n    function addVideo (uint64 _channelId) public onlyOwner returns (uint64) {\n\t\tuint64 videoId = nextVideoId;\n\t\t// Get storage ref\n\t\tVideo storage newVideo = videoById[videoId];\n\t\t// Populate the struct\n\t\tnewVideo.isExisting = true;\n\t\tnewVideo.isActive = true;\n\t\tnewVideo.channelId = _channelId;\n\t\t// Update counters\n\t\tvideoCountByChannelId[_channelId].add(1);\n\t\tnextVideoId.add(1);\n\t\treturn videoId;\n\t}\n\n\t// Get channel + perform existance check\n\tfunction getExistingVideo(uint64 _videoId) public view returns (Video memory) {\n\t\tVideo memory video = videoById[_videoId];\n\t\trequire(video.isExisting, \"Trying to access unexisting video\");\n\t\treturn video;\n\t}\n\n\tfunction updateStatus (uint64 _videoId, bool _isActive) public onlyOwner {\n\t\t// Get storage ref\n\t\tVideo storage video = videoById[_videoId];\n\t\t// Update the value in struct\n\t\tvideo.isActive = _isActive;\n\t}\n\n    function removeVideo (uint64 _videoId) public onlyOwner {\n\t\t// Dec videoCountByChannel\n\t\tvideoCountByChannelId[videoById[_videoId].channelId].sub(1);\n\t\t// Clear entry in map (setting isExisting to false)\n    \tdelete videoById[_videoId];\n\t}\n}\n",
  "sourcePath": "/home/leszek/projects/joystream/joystream/smart-contracts/contracts/storage/VideoStorage.sol",
  "compiler": {
    "name": "solc",
    "version": "0.6.12+commit.27d51765.Emscripten.clang"
  },
  "schemaVersion": "3.3.2",
  "updatedAt": "2020-11-17T12:09:37.589Z",
  "devdoc": {
    "kind": "dev",
    "methods": {
      "owner()": {
        "details": "Returns the address of the current owner."
      },
      "renounceOwnership()": {
        "details": "Leaves the contract without owner. It will not be possible to call `onlyOwner` functions anymore. Can only be called by the current owner. NOTE: Renouncing ownership will leave the contract without an owner, thereby removing any functionality that is only available to the owner."
      },
      "transferOwnership(address)": {
        "details": "Transfers ownership of the contract to a new account (`newOwner`). Can only be called by the current owner."
      }
    },
    "version": 1
  },
  "userdoc": {
    "kind": "user",
    "methods": {},
    "version": 1
  }
}